:10000000F0C100001FC200001DC200001BC20000A2
:1000100019C2000017C2000015C2000013C2000080
:1000200011C200000FC200000DC200000BC2000090
:1000300009C2000007C2000005C2000003C20000A0
:1000400001C200000C94E80BFDC10000FBC10000E0
:10005000F9C10000F7C10000F5C100000C940F0EBB
:10006000F1C100000C943F110C947511EBC100001C
:10007000E9C10000E7C10000E5C10000E3C10000E4
:100080000C94150CDFC10000DDC10000DBC10000D5
:10009000D9C10000D7C10000D5C10000D3C1000004
:1000A000D1C10000CFC100000C94420CCBC10000B4
:1000B000C9C10000C7C10000C5C100000C946F0C8D
:1000C000C1C10000BFC10000BDC10000BBC1000034
:1000D000B9C10000B7C10000B5C10000B3C1000044
:1000E000B1C10000270F2A0F190F1D0F230F610F39
:1000F0002E0F320F380F3C0F400F460F4A0F4E0F96
:10010000610F540F580F5C0F0D0A003E00416C6CDC
:1001100020636F6D6D616E6473206D7573742065FF
:100120006E6420776974682061206E65776C696EF3
:10013000652E004D3131343B202D207265706F7279
:100140007420706F736974696F6E20616E642066CD
:1001500065656472617465004D3130303B202D203F
:10016000746869732068656C70206D65737361676E
:1001700065004D31383B202D2064697361626C65E8
:10018000206D6F746F727300473932205B582F599E
:100190002F5A2F452F482F4A287374657073295D95
:1001A0003B202D206368616E6765206C6F67696313
:1001B000616C20706F736974696F6E004739313BF1
:1001C000202D2072656C6174697665206D6F6465A1
:1001D000004739303B202D206162736F6C75746568
:1001E000206D6F64650047303420505B7365636F2A
:1001F0006E64735D3B202D2064656C61790047302F
:10020000302F473031205B582F592F5A2F452F4818
:100210002F4A287374657073295D205B46286665D4
:10022000656472617465295D3B202D206C696E6583
:100230006172206D6F766500436F6D6D616E6473E2
:100240003A0047636F6465434E4344656D6F3641C2
:100250007869735632200073746570732F732E00A3
:1002600073746570732F7320616E64206C65737393
:10027000207468616E20004E657720666565647243
:10028000617465206D7573742062652067726561A5
:10029000746572207468616E200000000A0B020908
:1002A0000C0D0E0807030401000000000000000010
:1002B000000000000000000000000000000000003E
:1002C00000000000000012111000000000000000FB
:1002D000000000000000000000000000000000001E
:1002E0000102102020080810204010204080020148
:1002F000020108040201010204081020408080402D
:10030000201008040201800402018040201008042B
:1003100002010804020101020408102040800102C9
:100320000408102040800505050507050808080891
:10033000020202020A0A080804040404010101017D
:100340000101010103030303030303030407070778
:100350000C0C0C0C0C0C0C0C02020202060606061D
:10036000060606060B0B0B0B0B0B0B0B00002200FB
:10037000250028002B002E0031003400020100006F
:10038000050108010B0100002100240027002A00BC
:100390002D003000330001010000040107010A01B3
:1003A0004E414E494E495459494E46CDCCCC3D0A5A
:1003B000D7233C17B7D13877CC2B329595E6241F3D
:1003C000B14F0A000020410000C84200401C4620F6
:1003D000BCBE4CCA1B0E5AAEC59D74006F0AA71155
:1003E000780A11241FBECFEFD1E2DEBFCDBF00E0FF
:1003F0000CBF12E0A0E0B2E0E6E9F7E300E00BBFDB
:1004000002C007900D92AA3DB107D9F725E0AAEDE9
:10041000B2E001C01D92A430B207E1F713E0C0EED4
:10042000D3E000E006C022970109FE010BBF0E9445
:10043000EA17CC3DD10780E00807A9F70E945515BF
:100440000C94BA1BDDCDCF92DF92EF92FF9228EE93
:1004500033E040E050E00E94BE176B017C01CA010E
:10046000B9010E947C0EC601FF90EF90DF90CF9003
:100470000C94A10ECF92DF92EF92FF926B017C0160
:100480009B01AC016091F6027091F7028091F80235
:100490009091F9020E94C715882309F458C020E8FA
:1004A00036E948E15BE4C701B6010E941617181649
:1004B00054F02CEA35EC47E257E3C701B6010E943D
:1004C000C71587FF2AC067E772E081E694E00E94C3
:1004D000281222E030E04CEA55EC67E277E381E64F
:1004E00094E00E94111460E672E081E694E00E94BC
:1004F00028122AE030E040E856E968E970E081E639
:1005000094E00E94CD1267E572E081E694E0FF90EE
:10051000EF90DF90CF900C945612A701960160E8FF
:1005200076E988E19BE40E94CB150E943316609324
:10053000F2027093F3028093F4029093F502C0925A
:10054000F602D092F702E092F802F092F902FF90E0
:10055000EF90DF90CF900895CF92DF92EF92FF92CD
:100560001F93CF93DF93182F6A017B01C091FA028A
:10057000D091FB02C450DD4F8CEF92E00097C9F0A0
:10058000FC0120812223A9F08C179D0790F42113F0
:100590000AC00196DF91CF911F91FF90EF90DF90FD
:1005A000CF900C94081A60E270E00E941C1A019629
:1005B000E5CFC701B601DF91CF911F91FF90EF907A
:1005C000DF90CF900895CF92DF92EF92FF926A0171
:1005D0007B01BC0181E694E00E944B1222E030E0F6
:1005E000B701A60181E694E0FF90EF90DF90CF90F5
:1005F0000C9412144091EE025091EF026091F002BF
:100600007091F10283E192E0DEDF4091EA025091C5
:10061000EB026091EC027091ED0285E192E0D3DF94
:100620004091E6025091E7026091E8027091E90280
:1006300087E192E0C8DF4091E2025091E3026091CD
:10064000E4027091E50289E192E0BDDF4091DE02B3
:100650005091DF026091E0027091E1028BE192E043
:10066000B2DF4091DA025091DB026091DC027091BE
:10067000DD028DE192E0A7DF4091F6025091F70292
:100680006091F8027091F9028FE192E09CDF809115
:100690000A02882319F06BE072E002C06FE072E09A
:1006A00081E694E00C9466124F925F926F927F9273
:1006B000AF92BF92CF92DF92EF92FF920F931F9370
:1006C000CF93DF93CDB7DEB7A4970FB6F894DEBF14
:1006D0000FBECDBF698B7A8B8B8B9C8B2D8B3E8B0A
:1006E0004F8B588FE98EFA8E0B8F1C8F2EA93FA946
:1006F00048AD59AD2D8F3E8F4F8F58A38AAD9BAD1E
:10070000ACADBDAD89A39AA3ABA3BCA32091EE026F
:100710003091EF024091F0025091F10269897A899B
:100720008B899C890E9462152AE130EB4CE152E4EE
:100730000E941A170E94331660936C0370936D0326
:1007400080936E0390936F032091EA023091EB0245
:100750004091EC025091ED026D897E898F89988DD0
:100760000E9462152BE43AE741E652E40E941A1710
:100770000E943316609378037093790380937A0311
:1007800090937B032091E6023091E7024091E802CA
:100790005091E902C801B7010E9462152AE130EBCD
:1007A0004CE152E40E941A170E94331660938403AE
:1007B0007093850380938603909387032091E202D0
:1007C0003091E3024091E4025091E502C601B50187
:1007D0000E94621522E139E341E952E40E941A17AE
:1007E0000E94331660939003709391038093920359
:1007F000909393032091DE023091DF024091E0025A
:100800005091E1026D8D7E8D8F8D98A10E946215B1
:100810002BE43AE741E652E40E941A170E9433168D
:1008200060939C0370939D0380939E0390939F031A
:100830002091DA023091DB024091DC025091DD021E
:1008400069A17AA18BA19CA10E9462152AE130EBDB
:100850004CE952E40E941A170E9433166093A803D1
:100860007093A9038093AA039093AB030CE613E063
:100870003EE3E32E33E0F32E412C512C3201F801FC
:1008800080819181A281B381AC01BD01B7FF07C016
:10089000B095A095909581959F4FAF4FBF4FF801B0
:1008A00084839583A683B783481659066A067B0618
:1008B00014F42C013D0181E01416150616061706E6
:1008C0000CF080E0682FD7018C910E949B0F045F91
:1008D0001F4FB8E0EB0EF11CE3E0043B1E0779F676
:1008E000D301C201B595A795979587958093740319
:1008F00090937503A0937603B0937703809380035E
:1009000090938103A0938203B093830380938C031D
:1009100090938D03A0938E03B0938F0380939803DD
:1009200090939903A0939A03B0939B038093A4039D
:100930009093A503A093A603B093A7038093B0035D
:100940009093B103A093B203B093B30300ED17E00B
:1009500020E030E04091F2025091F3026091F40205
:100960007091F502041B150B260B370B8D839E83AC
:10097000AF83B887081719072A073B0724F40D83AC
:100980001E832F833887A30192018D819E81AF81C1
:10099000B885281B390B4A0B5B0B2D873E874F8789
:1009A000588B61E272E081E694E00E944B122AE0EB
:1009B00030E040ED57E060E070E081E694E00E94B6
:1009C0002A1368E272E081E694E00E944B124091A3
:1009D000F2025091F3026091F4027091F5022AE064
:1009E00030E081E694E00E942A136DE272E081E635
:1009F00094E00E944B122AE030E04D815E816F81CD
:100A0000788581E694E00E942A136AE372E081E629
:100A100094E00E944B122AE030E04D855E856F85A0
:100A2000788981E694E00E942A1367E472E081E607
:100A300094E00E944B122AE030E0B301A20181E66B
:100A400094E00E942A1320ED37E040E050E029872F
:100A50003A874B875C8719821A821B821C82298104
:100A60003A814B815C8124153505460557050CF00C
:100A70007CC000E713E09CE3E92E93E0F92EF80137
:100A800084819581A681B781408151816281738182
:100A9000840F951FA61FB71F84159505A605B705DA
:100AA0002CF484839583A683B78313C08419950996
:100AB000A609B709F80184839583A683B78361E00B
:100AC000D7018C910E949B0F60E0F70180810E940A
:100AD0009B0F045F1F4FF8E0EF0EF11C23E0083B73
:100AE000120769F629813A814B815C818D819E8153
:100AF000AF81B885281739074A075B0764F4298551
:100B00003A854B855C852150310941095109298776
:100B10003A874B875C8729813A814B815C818D853F
:100B20009E85AF85B889281739074A075B0764F0A7
:100B300029853A854B855C852F5F3F4F4F4F5F4F2F
:100B400029873A874B875C8789859A850E94A10E01
:100B500029813A814B815C812F5F3F4F4F4F5F4F1F
:100B600029833A834B835C837ACF89899A89AB89BD
:100B7000BC898093EE029093EF02A093F002B093B1
:100B8000F1022D893E894F89588D2093EA023093D6
:100B9000EB024093EC025093ED02898D9A8DAB8D60
:100BA000BC8D8093E6029093E702A093E802B09395
:100BB000E902A092E202B092E302C092E402D09273
:100BC000E5022D8D3E8D4F8D58A12093DE0230938E
:100BD000DF024093E0025093E10289A19AA1ABA108
:100BE000BCA18093DA029093DB02A093DC02B09365
:100BF000DD02A4960FB6F894DEBF0FBECDBFDF9125
:100C0000CF911F910F91FF90EF90DF90CF90BF9009
:100C1000AF907F906F905F904F90ECCC62E472E069
:100C200081E694E00E9428124AE050E062E070E021
:100C300081E694E00E94141368E372E081E694E098
:100C40000E9456126EEF71E081E694E00E94561207
:100C500066EE71E081E694E00E94561261ED71E06B
:100C600081E694E00E9456126CEB71E081E694E01C
:100C70000E94561268E871E081E694E00E945612E4
:100C800062E771E081E694E00E94561268E571E047
:100C900081E694E00E94561263E371E081E694E0FD
:100CA0000E9456126DE071E081E694E00C945612B9
:100CB0001092FB021092FA026BE071E081E694E080
:100CC0000C942812CF93DF9386E390E090933D033A
:100CD00080933C0387E390E090933F0380933E032F
:100CE00086E290E0909341038093400383E090E09C
:100CF00090934303809342038CE390E090934503E9
:100D0000809344038DE390E09093470380934603E0
:100D100088E390E090934903809348038EE090E04D
:100D200090934B0380934A038EE290E090934D039F
:100D300080934C0380E390E090934F0380934E03A5
:100D40008EE390E0909351038093500382E190E012
:100D500090935303809352038AE190E0909355035C
:100D6000809354038CE190E0909357038093560353
:100D700088E190E0909359038093580382E090E0DB
:100D800090935B0380935A0384E290E090935D0319
:100D900080935C0382E290E090935F0380935E0314
:100DA0008EE190E090936103809360038FE090E088
:100DB00090936303809362038AE290E090936503CB
:100DC0008093640388E290E09093670380936603C6
:100DD0008FE390E0909369038093680381E190E052
:100DE00090936B0380936A03CCE3D3E061E0888146
:100DF0000E94620F61E08A810E94620F61E08C8133
:100E00000E94620F289683E0CC36D80779F7DF91ED
:100E1000CF910895CF93DF93C0E4D3E060E0888161
:100E20000E949B0F289683E0C037D807B9F7DF915F
:100E3000CF910895CF93DF93C0E4D3E061E0888140
:100E40000E949B0F289683E0C037D807B9F7DF913F
:100E5000CF9108952F923F924F925F926F927F921F
:100E60008F929F92AF92BF92CF92DF92EF92FF92BA
:100E70000F931F93CF93DF93CDB7DEB728970FB6AD
:100E8000F894DEBF0FBECDBF40E050E060E87FEBDE
:100E900087E462DB0E9433166430710509F418C1DF
:100EA00054F477FD8BC162307105ACF0623071058E
:100EB00009F40EC183C16B35710509F418C16C3595
:100EC000710509F417C16A35710509F077C181E030
:100ED00080930A0273C14091F6025091F70260912B
:100EE000F8027091F90286E437DBC4DA80910A02D5
:100EF000882349F04091DA025091DB026091DC02D4
:100F00007091DD0203C040E050E0BA018AE424DBC6
:100F100010910A02111109C02091DA023091DB020E
:100F20004091DC025091DD0203C020E030E0A901D5
:100F30000E9463154B01F82EE92E112349F04091D0
:100F4000DE025091DF026091E0027091E10203C085
:100F500040E050E0BA0188E4FFDAD0900A02D110F4
:100F600009C02091DE023091DF024091E0025091F1
:100F7000E10203C020E030E0A9010E9463158B016B
:100F80008D83292EDD2049F04091E2025091E30249
:100F90006091E4027091E50203C040E050E0BA01C4
:100FA00085E4DADA70900A02711009C02091E20239
:100FB0003091E3024091E4025091E50203C020E049
:100FC00030E0A9010E9463155B016C01772049F0B4
:100FD0004091E6025091E7026091E8027091E902C7
:100FE00003C040E050E0BA018AE5B6DA70900A0228
:100FF000711009C02091E6023091E7024091E802A9
:101000005091E90203C020E030E0A9010E9463157D
:1010100069837A838B839C83772049F04091EA022D
:101020005091EB026091EC027091ED0203C040E040
:1010300050E0BA0189E590DA30900A02311009C017
:101040002091EA023091EB024091EC025091ED02C6
:1010500003C020E030E0A9010E9463152B013C0190
:10106000332049F04091EE025091EF026091F0027E
:101070007091F10203C040E050E0BA0188E56CDAFB
:1010800020910A02211109C02091EE023091EF0255
:101090004091F0025091F10203C020E030E0A9013C
:1010A0000E946315EF92FF929F928F922F922D8153
:1010B0002F931F930F93E980FA800B811C81A3016A
:1010C0009201F2DA0FB6F894DEBF0FBECDBF76C044
:1010D00040E050E0BA0180E53FDA20E030E04AE746
:1010E00054E40E941A170E943316ADD967C01092BB
:1010F0000A0264C040E050E0BA018AE42DDA698354
:101100007A838B839C8340E050E0BA0188E424DA40
:101110006B017C0140E050E0BA0185E41DDA4B012F
:101120005C0140E050E0BA018AE516DA2B013C018F
:1011300040E050E0BA0189E50FDA6D837E838F834A
:10114000988740E050E0BA0188E506DA6093EE0245
:101150007093EF028093F0029093F1028D819E8153
:10116000AF81B8858093EA029093EB02A093EC02E2
:10117000B093ED024092E6025092E7026092E802DC
:101180007092E9028092E2029092E302A092E4025D
:10119000B092E502C092DE02D092DF02E092E0025D
:1011A000F092E10289819A81AB81BC818093DA025D
:1011B0009093DB02A093DC02B093DD0240E050E0AC
:1011C00060E87FEB8DE4C8D90E9433166231710567
:1011D00009F43EC0ECF46131710509F06BC028964A
:1011E0000FB6F894DEBF0FBECDBFDF91CF911F9138
:1011F0000F91FF90EF90DF90CF90BF90AF909F90B6
:101200008F907F906F905F904F903F902F9002CE85
:1012100064367105B1F16237710509F04BC028964B
:101220000FB6F894DEBF0FBECDBFDF91CF911F91F7
:101230000F91FF90EF90DF90CF90BF90AF909F9075
:101240008F907F906F905F904F903F902F90D2C97A
:1012500028960FB6F894DEBF0FBECDBFDF91CF91B9
:101260001F910F91FF90EF90DF90CF90BF90AF90C4
:101270009F908F907F906F905F904F903F902F90B6
:10128000D9CD28960FB6F894DEBF0FBECDBFDF9143
:10129000CF911F910F91FF90EF90DF90CF90BF9073
:1012A000AF909F908F907F906F905F904F903F9006
:1012B0002F90B4CC28960FB6F894DEBF0FBECDBFEA
:1012C000DF91CF911F910F91FF90EF90DF90CF9022
:1012D000BF90AF909F908F907F906F905F904F9056
:1012E0003F902F90089561E085E0ECD561E086E0C5
:1012F000E9D526E040E051EE60E070E081E694E060
:101300005ED7E0DC87DD76D989DC1092EE021092A0
:10131000EF021092F0021092F1021092EA02109283
:10132000EB021092EC021092ED021092E602109283
:10133000E7021092E8021092E9021092E202109283
:10134000E3021092E4021092E5021092DE02109283
:10135000DF021092E0021092E1021092DA02109283
:10136000DB021092DC021092DD0260E070E08AE79E
:1013700094E480D89DDC68EC70E086EB93E00C94FC
:1013800095146BE070E080EC93E0A0D384EB90E0E8
:101390009093BF038093BE036091BE037091BF031F
:1013A00080EC93E077FD0CC0D7D36FE070E080E075
:1013B00090E0A2D48091BE039091BF030197E8CF43
:1013C0008AC36BE070E080EC93E080D31092BF039F
:1013D0001092BE036091BE037091BF0380EC93E056
:1013E000653B710584F4B8D36FE070E080E090E075
:1013F00083D48091BE039091BF0301969093BF0365
:101400008093BE03E7CF67C38091BC039091BD0377
:101410000A969093BD038093BC0366E070E080EC75
:1014200093E054D31092BF031092BE036091BE03A9
:101430007091BF038091BC039091BD0386179707FD
:1014400094F080EC93E088D36FE070E080E090E06F
:1014500053D48091BE039091BF0301969093BF0334
:101460008093BE03E3CF80EC93E035C366E070E089
:1014700080EC93E02BD38091BC039091BD039093BB
:10148000BF038093BE036091BE037091BF0380ECE5
:1014900093E06A30710564F05FD36FE070E080E044
:1014A00090E02AD48091BE039091BF030197E7CFCB
:1014B00012D38091BC039091BD030A979093BD0312
:1014C0008093BC03089561E085E035C560E085E068
:1014D00032C561E086E02FC560E086E02CC580EC77
:1014E00093E02AD26BEC72E086EB93E00C94CE147E
:1014F00086EB93E00C946714CF93DF938091B50350
:10150000882309F458C06EE472E086EB93E00E94F1
:101510003615882311F035DF44C06FE572E086EBA5
:1015200093E00E943615882311F04BDF3AC061E743
:1015300072E086EB93E00E943615882311F064DF99
:1015400030C06FE772E086EB93E00E943615882387
:1015500011F08CDF26C06DE872E086EB93E00E940C
:101560003615882311F0AFDF1CC068E972E086EB06
:1015700093E00E943615882311F0A8DF12C064EAB8
:1015800072E086EB93E00E943615882311F0A1DF0C
:1015900008C06EEA72E086EB93E00E943615811176
:1015A0009BDF1092B5036BEC72E086EB93E00E9438
:1015B000E3141092B403D1E081E694E0F1D418165C
:1015C00019060CF043C081E694E003D5C82F83329E
:1015D00011F4D093B4038091B403882381F06C2F6D
:1015E00086EB93E00E942315CA3249F4D093B503E9
:1015F000E091FA02F091FB02E450FD4F10826C2F53
:1016000081E694E049D72091FA023091FB022F3312
:1016100031055CF4A9014F5F5F4F5093FB0240938B
:10162000FA02F901E450FD4FC083CA3029F6E09177
:10163000FA02F091FB02E450FD4F108268E071E085
:1016400081E694E005D706DC33DBB6CFDF91CF919E
:101650000895CF92DF92EF92FF920F931F93CF9353
:10166000DF936C018B017A01EC01CC53DC4F888154
:1016700087FF04C0FB011182108223C02CE02C9D47
:10168000C0012D9D900D11242881AC01420F511DE8
:1016900027FD5A952091C30330E0421753078CF47D
:1016A0002881AC01420F511D27FD5A959A01FA017C
:1016B000EE0FFF1FE20FF31FE853FC4F208126FDC2
:1016C00019C088818F5F88838CE08C9D90018D9DEF
:1016D000300D11248881A901480F511D87FD5A95AD
:1016E0008091C30390E048175907ACF488818C308F
:1016F00034F111C02881820F911D27FD9A95FC01BC
:10170000EE0FFF1FE80FF91FE853FC4F808160E0E8
:101710008F7311D4D6CFF8018081918104968034E3
:101720009C4918F480E49CE904C0F801808191810F
:101730000496F701918380838FEF888340C0F8017E
:10174000808191814881B901640F711D47FD7A95AF
:10175000AB01FB01EE0FFF1FE40FF51FE853FC4F39
:1017600041815281840F951FF70191838083888185
:10177000A901480F511D87FD5A95FA01EE0FFF1F71
:10178000E40FF51FE853FC4F808186FF18C0888165
:10179000280F311D87FD3A95F901EE0FFF1FE20F6B
:1017A000F31FE853FC4F808161E08F73DF91CF918D
:1017B0001F910F91FF90EF90DF90CF90BCC3DF910E
:1017C000CF911F910F91FF90EF90DF90CF900895F0
:1017D0001F920F920FB60F9211240BB60F922F93F8
:1017E0003F934F935F936F937F938F939F93AF93A9
:1017F000BF93EF93FF9348E850E064E870E081E026
:1018000090E027DFFF91EF91BF91AF919F918F9172
:101810007F916F915F914F913F912F910F900BBEF0
:101820000F900FBE0F901F9018951F920F920FB63A
:101830000F9211240BB60F922F933F934F935F9308
:101840006F937F938F939F93AF93BF93EF93FF9388
:1018500048E950E064E970E082E090E0FADEFF9150
:10186000EF91BF91AF919F918F917F916F915F9118
:101870004F913F912F910F900BBE0F900FBE0F9085
:101880001F9018951F920F920FB60F9211240BB64E
:101890000F922F933F934F935F936F937F938F9309
:1018A0009F93AF93BF93EF93FF9348EA50E064EAAE
:1018B00070E083E090E0CDDEFF91EF91BF91AF91BA
:1018C0009F918F917F916F915F914F913F912F9158
:1018D0000F900BBE0F900FBE0F901F9018951F9288
:1018E0000F920FB60F9211240BB60F922F933F93C6
:1018F0004F935F936F937F938F939F93AF93BF9318
:10190000EF93FF9348E251E064E271E080E090E001
:10191000A0DEFF91EF91BF91AF919F918F917F9149
:101920006F915F914F913F912F910F900BBE0F9050
:101930000FBE0F901F9018952091C3032033A0F481
:1019400031E0320F3093C303FC012083822F90E0FB
:10195000FC01EE0FFF1FE80FF91FE853FC4F88EB67
:101960009BE09283818308952FEFFC0120830895EB
:10197000DF92EF92FF920F931F93CF93DF93EC01CF
:10198000D62E7A0189018881803308F067C061E032
:101990008D2D98D28881A82FB0E0FD01EE0FFF1F9A
:1019A000EA0FFB1FE853FC4F2D2D2F739081907C85
:1019B000922B908360E272E06E197F0977FF02C07C
:1019C0006D5F7F4F7595679575956795698340E65F
:1019D00059E0401B510B57FF02C04D5F5F4F5595BB
:1019E0004795559547954A836CE00E9490179CE077
:1019F000899FB001112420E030E0A901460F571F54
:101A0000FA01EE0FFF1FE40FF51FE853FC4F908122
:101A100096FD18C02F5F3F4F2C30310571F790E0D5
:101A20008130910521F51092800082E08093810041
:101A30001092850010928400B19A80916F008260AC
:101A400080936F00888190E0FC01EE0FFF1FE80F8C
:101A5000F91FE853FC4F8081806480838881DF9187
:101A6000CF911F910F91FF90EF90DF9008958230FA
:101A7000910569F41092900082E080939100109299
:101A800095001092940088BB80937100DBCF833067
:101A9000910569F41092A00082E08093A100109259
:101AA000A5001092A40089BB80937200CBCF892B34
:101AB00049F61092200182E08093210110922501C5
:101AC000109224018ABB80937300BCCF20E639E0DA
:101AD00040E252E04DCFFC01808190E0FC01EE0F2E
:101AE000FF1FE80FF91FE853FC4F80818F7B808335
:101AF0000895FC018081803370F5918128E830E001
:101B0000291B310997FD3395220F331F220F331FF5
:101B1000621773077CF0928128E532E0291B3109B6
:101B200097FD3395220F331F220F331F6217730760
:101B30000CF49B0122503109220F331F4FB7F89448
:101B400090E0FC01EE0FFF1FE80FF91FE853FC4F78
:101B5000328321834FBF08954F925F926F927F929D
:101B6000AF92BF92CF92DF92EF92FF920F931F93AB
:101B7000CF93DF93EC01603282E078070CF03FC036
:101B800077FD06C0653B71052CF064EB70E002C088
:101B900060E070E0898128E830E0281B310987FD8A
:101BA0003395220F331F220F331F5901CC24B7FC6A
:101BB000C094DC2C882777FD8095982F2A8148E5F2
:101BC00052E0421B510927FD5395440F551F440F06
:101BD000551F2A01662457FC6094762C7F926F92E1
:101BE0005F924F9214EBE12EF12C00E010E020E028
:101BF00030E0A90127D60F900F900F900F90CE01E3
:101C0000DF91CF911F910F91FF90EF90DF90CF90D8
:101C1000BF90AF907F906F905F904F906ACF1F9270
:101C20000F920FB60F9211242F933F938F939F9390
:101C3000AF93BF938091590490915A04A0915B0493
:101C4000B0915C043091580423E0230F2D3720F429
:101C50000196A11DB11D05C026E8230F0296A11D06
:101C6000B11D209358048093590490935A04A09373
:101C70005B04B0935C0480915D0490915E04A0913C
:101C80005F04B09160040196A11DB11D80935D04B5
:101C900090935E04A0935F04B0936004BF91AF91F2
:101CA0009F918F913F912F910F900FBE0F901F909A
:101CB00018953FB7F89480915D0490915E04A091CF
:101CC0005F04B091600426B5A89B05C02F3F19F0B2
:101CD0000196A11DB11D3FBF6627782F892F9A2F2E
:101CE000620F711D811D911D42E0660F771F881FD5
:101CF000991F4A95D1F70895CF92DF92EF92FF9204
:101D0000CF93DF936B017C01D4DFEB01C114D104CD
:101D1000E104F10479F0D5D6CCDF6C1B7D0B683E75
:101D20007340A0F381E0C81AD108E108F108C85156
:101D3000DC4FECCFDF91CF91FF90EF90DF90CF9011
:101D400008958230910538F0880F991F880F991FE8
:101D500005970197F1F70895789484B5826084BD62
:101D600084B5816084BD85B5826085BD85B581609F
:101D700085BDEEE6F0E0808181608083E1E8F0E0FF
:101D80001082808182608083808181608083E0E82E
:101D9000F0E0808181608083E1EBF0E0808184600D
:101DA0008083E0EBF0E0808181608083E1E9F0E016
:101DB000808182608083808181608083E0E9F0E0BF
:101DC000808181608083E1EAF0E0808182608083AD
:101DD000808181608083E0EAF0E08081816080839F
:101DE000E1E2F1E080818260808380818160808394
:101DF000E0E2F1E0808181608083EAE7F0E08081C9
:101E00008460808380818260808380818160808320
:101E10008081806880831092C100089590E0FC0169
:101E20003197E231F10508F04CC0EE58FF4F0C94A9
:101E3000DA17809180008F7703C0809180008F7DBA
:101E400080938000089580918000877FF9CF84B5CA
:101E50008F7702C084B58F7D84BD08958091B000D6
:101E60008F7703C08091B0008F7D8093B00008957C
:101E7000809190008F7707C0809190008F7D03C084
:101E800080919000877F8093900008958091A000BA
:101E90008F7707C08091A0008F7D03C08091A00044
:101EA000877F8093A0000895809120018F7707C0DD
:101EB000809120018F7D03C080912001877F8093D6
:101EC00020010895CF93DF9390E0FC01E052FD4F95
:101ED0002491FC01EA5DFC4F8491882349F190E054
:101EE000880F991FFC01EA57FC4FA591B4918459C2
:101EF0009C4FFC01C591D4919FB7611108C0F89423
:101F00008C91209582238C93888182230AC0623031
:101F100051F4F8948C91322F309583238C938881DF
:101F2000822B888304C0F8948C91822B8C939FBF62
:101F3000DF91CF9108950F931F93CF93DF931F925B
:101F4000CDB7DEB7282F30E0F901E656FD4F84917A
:101F5000F901E052FD4F1491F901EA5DFC4F049143
:101F60000023C1F0882319F0698358DF6981E02FCD
:101F7000F0E0EE0FFF1FE459FC4FA591B4919FB71D
:101F8000F8948C91611103C01095812301C0812BBD
:101F90008C939FBF0F90DF91CF911F910F91089568
:101FA000FC01818D228D90E0805C9F4F821B910906
:101FB0008F7399270895FC01918D828D981731F0C8
:101FC000828DE80FF11D858D90E008958FEF9FEFD2
:101FD0000895FC01918D828D981761F0828DDF014B
:101FE000A80FB11D5D968C91928D9F5F9F73928F0C
:101FF00090E008958FEF9FEF08958EE991E1892B8E
:1020000039F080E090E0892B19F098D1811125C03A
:1020100080E090E0892B41F080E090E0892B21F076
:102020000E94000081111CC080E090E0892B41F0EB
:1020300080E090E0892B21F00E940000811113C004
:1020400080E090E0892BA1F080E090E0892B81F086
:102050000E94000081110AC008950E940000D8CF9C
:102060000E940000E1CF0E940000EACF0C94000023
:102070000895FC01848DDF01A80FB11DA35ABF4F45
:102080002C91848D90E001968F739927848FA68977
:10209000B7892C93A089B1898C9180648C93938D9E
:1020A000848D981306C00288F389E02D80818F7D8E
:1020B00080830895CF93DF93EC01888D8823C1F04E
:1020C000EA89FB89808185FD05C0A889B9898C9141
:1020D00086FD0EC00FB607FCF5CF808185FFF2CFDD
:1020E000A889B9898C9185FFEDCFCE01C2DFE8CFF9
:1020F000DF91CF910895CF92DF92FF920F931F93BC
:10210000CF93DF931F92CDB7DEB76C0181E0D6018C
:1021100058968C9358975B969C915B975C968C91A4
:102120005C97981307C05096ED91FC915197808170
:1021300085FD2DC0F601038D10E00F5F1F4F0F735B
:102140001127F02EF601848DF81210C00FB607FC8F
:10215000F9CFD6015096ED91FC915197808185FF82
:10216000F1CFC601698385DF6981ECCF838DE80FEC
:10217000F11DE35AFF4F6083D6015B960C935B978A
:102180005296ED91FC915397808180620CC0D601EC
:102190005696ED91FC91579760835096ED91FC9186
:1021A000519780818064808381E090E00F90DF917F
:1021B000CF911F910F91FF90DF90CF900895BF9224
:1021C000CF92DF92EF92FF92CF93DF93EC016A01FF
:1021D0007B01B22EE889F98982E08083411581EE86
:1021E00058076105710599F060E079E08DE390E0B2
:1021F000A7019601A1D621503109410951095695EF
:10220000479537952795211580E1380790F0E889A3
:10221000F989108260E874E88EE190E0A7019601E8
:102220008BD621503109410951095695479537956B
:102230002795EC85FD853083EE85FF852083188EFC
:10224000EC89FD89B082EA89FB8980818061808385
:10225000EA89FB89808188608083EA89FB898081A3
:1022600080688083EA89FB8980818F7D8083DF910C
:10227000CF91FF90EF90DF90CF90BF9008951F9285
:102280000F920FB60F9211240BB60F922F938F93CC
:102290009F93EF93FF93E0917104F091720480811A
:1022A000E0917704F091780482FD12C090818091D2
:1022B0007A048F5F8F7320917B04821751F0E09135
:1022C0007A04F0E0EF59FB4F958F80937A0401C0B8
:1022D0008081FF91EF919F918F912F910F900BBE75
:1022E0000F900FBE0F901F9018951F920F920FB670
:1022F0000F9211240BB60F922F933F934F935F933E
:102300006F937F938F939F93AF93BF93EF93FF93BD
:1023100081E694E0AEDEFF91EF91BF91AF919F9186
:102320008F917F916F915F914F913F912F910F907E
:102330000BBE0F900FBE0F901F90189581E694E092
:102340002FDE21E0892B09F420E0822F08951092DE
:1023500064041092630488EE93E0A0E0B0E0809300
:10236000650490936604A0936704B09368048DEBB2
:1023700092E0909362048093610485EC90E09093E6
:102380006E0480936D0484EC90E0909370048093CD
:102390006F0480EC90E0909372048093710481EC60
:1023A00090E0909374048093730482EC90E0909397
:1023B00076048093750486EC90E090937804809383
:1023C000770410927A0410927B0410927C0410928D
:1023D0007D040895CF92DF92EF92FF920F931F93A7
:1023E000CF93DF937C016A01EB0100E010E00C1554
:1023F0001D0571F06991D701ED91FC910190F0817B
:10240000E02DC7011995892B19F00F5F1F4FEFCFF2
:10241000C801DF91CF911F910F91FF90EF90DF9056
:10242000CF9008956115710581F0DB010D900020BA
:10243000E9F7AD0141505109461B570BDC01ED9105
:10244000FC910280F381E02D199480E090E00895E2
:10245000EF92FF920F931F93CF93DF938C017B0139
:10246000C0E0D0E0F701EC0FFD1F6491662359F046
:10247000F801A081B181ED91FC91C8011995892BDA
:1024800011F02196EFCFCE01DF91CF911F910F91E7
:10249000FF90EF900895C6CFDC01ED91FC91019083
:1024A000F081E02D199469EC72E0BCCF0F931F937B
:1024B000CF93DF93EC01CCDF8C01CE01F4DF800FF2
:1024C000911FDF91CF911F910F9108950F931F934B
:1024D000CF93DF93EC01A6DF8C01CE01E4DF800F08
:1024E000911FDF91CF911F910F9108958F929F922D
:1024F000AF92BF92CF92DF92EF92FF920F931F9312
:10250000CF93DF93CDB7DEB7A1970FB6F894DEBFB8
:102510000FBECDBF7C01C42EE52FCB01D22E19A258
:1025200021E02D1510F02AE0D22E8E010F5D1F4FF5
:102530008D2C912CA12CB12C6C2D7E2FA5019401FA
:10254000FBD48C2DD29E80191124015011098A30A0
:1025500014F4805D01C0895CF80180832115310588
:102560004105510521F0C22EE32FCA01E5CFB80184
:10257000C70158DFA1960FB6F894DEBF0FBECDBFDE
:10258000DF91CF911F910F91FF90EF90DF90CF904F
:10259000BF90AF909F908F900895CF92DF92EF926F
:1025A000FF920F931F93CF93DF93EC016A017B019E
:1025B0002115310579F4E881F9810190F081E02D50
:1025C000642FDF91CF911F910F91FF90EF90DF90DB
:1025D000CF9019942A303105D9F477FF18C06DE2F5
:1025E0005BDF8C0144275527BA014C195D096E0940
:1025F0007F092AE0CE017ADF800F911FDF91CF9112
:102600001F910F91FF90EF90DF90CF9008952AE0F7
:10261000B701A601CE01DF91CF911F910F91FF90DD
:10262000EF90DF90CF9062CF0F931F93CF93DF9304
:10263000EC019A01AB01662757FD6095762FADDF5F
:102640008C01CE0130DF800F911FDF91CF911F9160
:102650000F9108950F931F93CF93DF93EC019DDFAC
:102660008C01CE0120DF800F911FDF91CF911F9150
:102670000F9108954F925F926F927F928F929F92E7
:10268000AF92BF92CF92DF92EF92FF920F931F9380
:10269000CF93DF93EC016A017B01B22E9A01AB016B
:1026A000C701B6012AD4882319F06CEC72E024C06B
:1026B00026013701E89477F82FEF3FEF4FE75FE708
:1026C000C301B2011AD481110CC02FEF3FEF4FE7C5
:1026D0005FE7C301B2015BD218161CF460ED72E033
:1026E0000BC02FEF3FEF4FE75FE4C701B6019ED36A
:1026F0001816A4F464ED72E0CE01DF91CF911F9122
:102700000F91FF90EF90DF90CF90BF90AF909F9090
:102710008F907F906F905F904F9084CE2FEF3FEF20
:102720004FE75FECC701B60132D287FDE3CF20E06F
:1027300030E0A901C701B6012AD287FF09C06DE2C6
:10274000CE01AADE8C01F7FAF094F7F8F09402C0FB
:1027500000E010E0A12C60E070E080E09FE3AB14AB
:1027600039F020E030E040E251E415D2A394F7CFF5
:102770009B01AC01C701B601A6D16B017C0178D2E7
:102780002B013C01A1D29B01AC01C701B6019AD13A
:102790006B017C012AE0B301A201CE01A7DE080F84
:1027A000191FBB2031F068ED72E0CE013BDE080F4F
:1027B000191F7B2C772019F120E030E040E251E432
:1027C000C701B60137D36B017C014DD24B01AA245E
:1027D00097FCA094BA2C2AE030E0B501A401CE0108
:1027E000DCDE080F191FC501B40170D29B01AC01DA
:1027F000C701B60167D16B017C017A94DBCFC801B8
:10280000DF91CF911F910F91FF90EF90DF90CF90CC
:10281000BF90AF909F908F907F906F905F904F9000
:10282000089528CF0F931F93CF93DF93EC0122DFFE
:102830008C01CE0138DE800F911FDF91CF911F9167
:102840000F9108954F925F926F927F92AF92BF92D5
:10285000CF92DF92EF92FF920F931F93CF93DF936C
:10286000CDB7DEB729013A01621B730B840B950BC0
:102870002A893B894C895D892A193B094C095D09E4
:102880002A8B3B8B4C8B5D8B9B01AC016A897B89CE
:102890008C899D8936D3E418F50806091709A80123
:1028A00097016CD32A0D3B1D4C1D5D1DCA01B9015A
:1028B000DF91CF911F910F91FF90EF90DF90CF901C
:1028C000BF90AF907F906F905F904F900895FC0104
:1028D000808191812AC4CF93DF93EC018881998113
:1028E000009709F022D4198218821D821C821B8253
:1028F0001A82DF91CF9108950F931F93CF93DF93A7
:10290000EC018B016F5F7F4F888199819DD4009787
:1029100031F0998388831B830A8381E001C080E0C2
:10292000DF91CF911F910F910895CF93DF93EC0129
:1029300088819981892B29F08A819B818617970745
:1029400058F4CE01D9DF882341F08C819D81892BF9
:1029500019F4E881F981108281E0DF91CF91089527
:10296000EF92FF920F931F93CF93DF93EC017B01C4
:102970008A01BA01DADF811103C0CE01ACDF06C0E3
:102980001D830C83B701888199816AD5CE01DF91BF
:10299000CF911F910F91FF90EF900895FC0111824C
:1029A000108213821282158214826115710551F012
:1029B000FB0101900020E9F7AF0141505109461B8E
:1029C000570BCECF0895CF93DF93EC0161157105BE
:1029D00059F0FB0101900020E9F7AF014150510986
:1029E000461B570BBDDF01C076DFCE01DF91CF91D3
:1029F0000895EF92FF920F931F93CF93DF93EC0113
:102A00007B010C811D816115710511F480E014C0FA
:102A10004115510581F0040F151FB80186DF882389
:102A2000A9F3288139818C819D81B701820F931F81
:102A300017D51D830C8381E0DF91CF911F910F91FA
:102A4000FF90EF900895CF93DF931F921F92CDB721
:102A5000DEB769831A8241E050E0BE016F5F7F4FAD
:102A6000C8DF0F900F90DF91CF910895FC01248172
:102A70003581232B31F421E06115710599F0FB01BB
:102A800008C0FC01808191816115710531F421E05C
:102A9000FC018081882331F004C0D9D421E0892B46
:102AA00009F020E0822F0895089556D9FDDF0E9495
:102AB0007309CDEFDFE00E947C0A2097E1F39DDAF5
:102AC000FACF08955058BB27AA270ED075C166D1FA
:102AD00030F06BD120F031F49F3F11F41EF45BC154
:102AE0000EF4E095E7FB51C1E92F77D180F3BA17D7
:102AF000620773078407950718F071F49EF58FC17C
:102B00000EF4E0950B2EBA2FA02D0B01B901900108
:102B10000C01CA01A0011124FF27591B99F0593F4C
:102B200050F4503E68F11A16F040A22F232F342F94
:102B30004427585FF3CF469537952795A795F040E2
:102B40005395C9F77EF41F16BA0B620B730B840BF7
:102B5000BAF09150A1F0FF0FBB1F661F771F881FAF
:102B6000C2F70EC0BA0F621F731F841F48F4879507
:102B700077956795B795F7959E3F08F0B3CF9395F6
:102B8000880F08F09927EE0F979587950895D9D06B
:102B900008F481E008950CD00FC107D140F0FED0B9
:102BA00030F021F45F3F19F0F0C0511139C1F3C08A
:102BB00014D198F39923C9F35523B1F3951B550B01
:102BC000BB27AA2762177307840738F09F5F5F4F00
:102BD000220F331F441FAA1FA9F333D00E2E3AF041
:102BE000E0E830D091505040E695001CCAF729D05B
:102BF000FE2F27D0660F771F881FBB1F26173707AA
:102C00004807AB07B0E809F0BB0B802DBF01FF27D9
:102C100093585F4F2AF09E3F510568F0B6C000C13F
:102C20005F3FECF3983EDCF3869577956795B79513
:102C3000F7959F5FC9F7880F911D9695879597F92E
:102C40000895E1E0660F771F881FBB1F62177307A7
:102C50008407BA0720F0621B730B840BBA0BEE1FBC
:102C600088F7E095089504D06894B111D9C008950B
:102C7000BCD088F09F5790F0B92F9927B751A0F09A
:102C8000D1F0660F771F881F991F1AF0BA95C9F700
:102C900012C0B13081F0C3D0B1E00895C0C0672F39
:102CA000782F8827B85F39F0B93FCCF386957795B0
:102CB0006795B395D9F73EF4909580957095619599
:102CC0007F4F8F4F9F4F0895E89409C097FB3EF4C4
:102CD00090958095709561957F4F8F4F9F4F992369
:102CE000A9F0F92F96E9BB279395F69587957795E7
:102CF0006795B795F111F8CFFAF4BB0F11F460FFA7
:102D00001BC06F5F7F4F8F4F9F4F16C0882311F0FE
:102D100096E911C0772321F09EE8872F762F05C012
:102D2000662371F096E8862F70E060E02AF09A95AD
:102D3000660F771F881FDAF7880F9695879597F9A2
:102D40000895990F0008550FAA0BE0E8FEEF16163C
:102D50001706E807F907C0F012161306E407F5078F
:102D600098F0621B730B840B950B39F40A2661F003
:102D7000232B242B252B21F408950A2609F4A140A6
:102D8000A6958FEF811D811D089597F99F6780E8B3
:102D900070E060E008959FEF80EC089500240A94AD
:102DA0001616170618060906089500240A94121626
:102DB0001306140605060895092E0394000C11F459
:102DC000882352F0BB0F40F4BF2B11F460FF04C006
:102DD0006F5F7F4F8F4F9F4F089557FD9058440F5F
:102DE000551F59F05F3F71F04795880F97FB991F6A
:102DF00061F09F3F79F08795089512161306140627
:102E0000551FF2CF4695F1DF08C0161617061806B3
:102E1000991FF1CF86957105610508940895E8948E
:102E2000BB2766277727CB0197F908958ADF08F437
:102E30008FEF08950BD0C0CFB1DF28F0B6DF18F0C8
:102E4000952309F0A2CFA7CF1124EACFC6DFA0F3C4
:102E5000959FD1F3950F50E0551F629FF001729F2F
:102E6000BB27F00DB11D639FAA27F00DB11DAA1F4E
:102E7000649F6627B00DA11D661F829F2227B00D9B
:102E8000A11D621F739FB00DA11D621F839FA00D26
:102E9000611D221F749F3327A00D611D231F849F76
:102EA000600D211D822F762F6A2F11249F575040CD
:102EB0008AF0E1F088234AF0EE0FFF1FBB1F661F68
:102EC000771F881F91505040A9F79E3F510570F021
:102ED0005CCFA6CF5F3FECF3983EDCF38695779509
:102EE0006795B795F795E7959F5FC1F7FE2B880F1C
:102EF000911D9695879597F9089523DF880B990B77
:102F00000895DB018F939F935BD0BF91AF91A29FF8
:102F1000800D911DA39F900DB29F900D11240895D7
:102F2000991B79E004C0991F961708F0961B881F1B
:102F30007A95C9F780950895A1E21A2EAA1BBB1BAA
:102F4000FD010DC0AA1FBB1FEE1FFF1FA217B30775
:102F5000E407F50720F0A21BB30BE40BF50B661F8B
:102F6000771F881F991F1A9469F76095709580954F
:102F700090959B01AC01BD01CF010895052E97FBF3
:102F800016F400940FD057FD05D0D6DF07FC02D011
:102F900046F408C050954095309521953F4F4F4FCE
:102FA0005F4F089590958095709561957F4F8F4FF5
:102FB0009F4F0895EE0FFF1F0590F491E02D199497
:102FC0000DD0A59F900DB49F900DA49F800D911DD5
:102FD000112408950790F691E02D1994A29FB00155
:102FE000B39FC001A39F700D811D1124911DB29F3D
:102FF000700D811D1124911D0895CF93DF938230B0
:10300000910510F482E090E0E0910005F091010557
:1030100020E030E0A0E0B0E0309739F1408151810C
:1030200048175907B8F04817590771F482819381FE
:10303000109729F013969C938E9312972CC090931F
:1030400001058093000527C02115310531F0421795
:10305000530718F0A901DB0101C0EF019A01BD017E
:10306000DF010280F381E02DD7CF21153105F9F082
:10307000281B390B2430310580F48A819B8161152E
:10308000710521F0FB019383828304C090930105B5
:1030900080930005FE01329644C0FE01E20FF31F4B
:1030A0008193919322503109398328833AC020912A
:1030B000FE043091FF04232B41F420910202309151
:1030C00003023093FF042093FE042091000230910C
:1030D00001022115310541F42DB73EB7409104029C
:1030E00050910502241B350BE091FE04F091FF0482
:1030F000E217F307A0F42E1B3F0B2817390778F0CF
:10310000AC014E5F5F4F2417350748F04E0F5F1F2D
:103110005093FF044093FE048193919302C0E0E03A
:10312000F0E0CF01DF91CF910895CF93DF93009727
:1031300009F487C0FC01329713821282C091000506
:10314000D0910105209781F420813181280F391F0A
:103150008091FE049091FF048217930779F5F09314
:10316000FF04E093FE046DC0DE0120E030E0AE1706
:10317000BF0750F412964D915C9113979D01411534
:10318000510509F1DA01F3CFB383A2834081518164
:10319000840F951F8A179B0771F48D919C9111974D
:1031A000840F951F02969183808312968D919C9136
:1031B0001397938382832115310529F4F093010538
:1031C000E09300053EC0D9011396FC93EE9312974D
:1031D0004D915D91A40FB51FEA17FB0779F480812B
:1031E0009181840F951F0296D90111969C938E931D
:1031F0008281938113969C938E931297E0E0F0E086
:103200008A819B81009719F0FE01EC01F9CFCE0174
:10321000029628813981820F931F2091FE043091FC
:10322000FF042817390769F4309729F41092010533
:103230001092000502C013821282D093FF04C09343
:10324000FE04DF91CF9108956F927F928F929F92AB
:10325000AF92BF92CF92DF92EF92FF920F931F93A4
:10326000CF93DF93EC01CB01209779F4DF91CF91DD
:103270001F910F91FF90EF90DF90CF90BF90AF9094
:103280009F908F907F906F90B8CEFE01E60FF71F52
:103290009E0122503109E217F30708F4A8C0D901B2
:1032A0000D911C91119706171707B0F00530110505
:1032B00008F49BC0A801445051094617570708F469
:1032C00094C002501109061B170B019311936D93C3
:1032D0007C93CF012ADF89C05B01A01AB10A4E019D
:1032E000800E911EA0910005B0910105612C712CFA
:1032F00060E070E0109709F449C0A815B905C9F558
:10330000ED90FC901197670142E0C40ED11CCA14E5
:10331000DB0478F147018A189B08640142E0C40E7F
:10332000D11C1296BC9012971396AC91B5E0CB16B7
:10333000D10440F0B282A38391828082D9018D931F
:103340009C9309C00E5F1F4F0E0D1F1DF9011183C5
:103350000083EB2DFA2F6115710531F0DB01139617
:10336000FC93EE93129741C0F0930105E0930005A2
:103370003CC06D917C9111976616770608F43B016D
:10338000BD0112960D90BC91A02DB4CF6091FE04AA
:103390007091FF0468157905E9F468167906D0F490
:1033A00040910002509101024115510541F44DB781
:1033B0005EB76091040270910502461B570BE4173B
:1033C000F507A8F4F093FF04E093FE04F90191835C
:1033D00080830BC012DE7C01009749F0A801BE017A
:1033E00022D0CE01A2DEC70104C0CE0102C080E01F
:1033F00090E0DF91CF911F910F91FF90EF90DF90C0
:10340000CF90BF90AF909F908F907F906F900895D6
:10341000662777272CC0911192C1803219F089500C
:103420008550D0F70895FB01DC0102C001900D9298
:1034300041505040D8F70895FC018191861721F042
:103440008823D9F7992708953197CF010895FB0173
:10345000DC018D91019080190110D9F3990B089529
:10346000FB01DC0101900D920020E1F708958F929D
:103470009F92AF92BF92CF92DF92EF92FF920F9303
:103480001F93CF93DF938B016115710521F0DB0151
:103490008C9311969C93EC015E01BFEFAB1ABB0AB3
:1034A0007501C8808C2D90E0B6DF892B11F0E50105
:1034B000F3CFEDE2CE1208C07E01F2E0EF0EF11C78
:1034C000C980DD24D39409C02BE2C21205C07E015D
:1034D00042E0E40EF11CC980D12CE701219743E0C2
:1034E00050E068EA73E0CE012DD1892BB9F4239620
:1034F00045E050E063EA73E0CE0124D1892B09F462
:1035000025960115110519F0D801CD93DC93D11042
:1035100000C160E070E080E89FE704C143E050E054
:1035200060EA73E0CE010ED1892B59F40115110523
:1035300009F4F4C0B2E0EB0EF11CF801F182E08274
:10354000EDC0F70160E070E0CB01C0E0D0E07F01AA
:10355000A0EDAA2EAC0C29E02A1528F14D2D4260D1
:10356000B42E2D2D2870D2FE04C0211124C0219626
:1035700022C021112197A5E0B0E09B01AC0120DD24
:10358000660F771F881F991F6A0D711D811D911D80
:103590006839A9E97A078A07A9E19A0760F0BD2D81
:1035A000B660BB2E08C02EEFA2120AC0D3FC50C0DA
:1035B0004D2D4860B42E3196D701CC90DB2CC7CF6F
:1035C0002C2D2F7D253409F043C0A081AD3241F46C
:1035D000BD2DB061DB2E7F0122E0E20EF11C0CC09C
:1035E0007F01AB3231F04FEFE41AF40A21E030E012
:1035F00006C0A2E0EA0EF11CA18122E030E0A05357
:10360000AA3018F0E21AF30A23C0F70120E030E0F4
:103610002038BCE03B075CF4A901440F551F440F60
:10362000551F240F351F220F331F2A0F311DAF01E5
:103630004F5F5F4F7A01A081A053AA3010F4FA01C6
:10364000E7CFD4FE03C0319521953109C20FD31FB6
:10365000D1FE09C00115110531F0E1E0EE1AF108C3
:10366000D801ED92FC9230DB2D2D2370233019F020
:103670004B015C0106C04B015C01B7FAB094B7F88E
:10368000B09420E030E0A901C501B40180DA8823BC
:1036900009F43CC0D7FF06C0D195C195D1090FEB05
:1036A00013E002C007ED13E06801B8E1CB1AD108BE
:1036B00090E2E92EF12CCE15DF056CF0F801259192
:1036C000359145915491C501B401B4DB4B015C01C6
:1036D000CE19DF09F0CF04501109F594E7940C15C9
:1036E0001D0549F78A2D880F8B2D881F8F3F41F0CC
:1036F00020E030E0A901C501B40149DA811106C01A
:1037000082E290E09093030580930205C501B40125
:1037100009C060E070E080E89FEF04C060E070E006
:1037200080EC9FE7DF91CF911F910F91FF90EF9079
:10373000DF90CF90BF90AF909F908F900895992782
:1037400088270895FB01DC014150504088F08D919D
:1037500081341CF08B350CF4805E659161341CF073
:103760006B350CF4605E861B611171F3990B089543
:10377000881BFCCF13E0C0EED3E000E005C0229729
:103780000109FE010BBF26DCC23ED10780E008071D
:06379000B1F7F894FFCF31
:103796000000040580000100000001414253005270
:1037A600454C00580059005A00450048004A00465A
:1037B6000053544152542000544F5020006163631B
:1037C600656C20756E74696C2000646563656C2099
:1037D60061667465722000746F74616C20002374D6
:1037E60075726E736572766F316F70656E2A00231F
:1037F6007475726E736572766F31636C6F73652A5A
:1038060000237475726E736572766F62612A002387
:103816007475726E736572766F62622A00236D61CB
:10382600676E65746F6E2A00236D61676E65746FCF
:1038360066662A00236D6F746F726F6E2A00236DA1
:103846006F746F726F66662A00000000007B10EAD4
:1038560011D00FE90FDB0F5A100D0A006E616E00D2
:0A386600696E66006F7666002E00A2
:00000001FF
