:10000000FBC100002AC2000028C2000026C2000076
:1000100024C2000022C2000020C200001EC2000054
:100020001CC200001AC2000018C2000016C2000064
:1000300014C200000C94CE0A10C200000EC20000D0
:100040000CC200000C94B80B08C2000006C20000ED
:1000500004C2000002C2000000C200000C94DF0DC8
:10006000FCC100000C940F110C944511F6C1000066
:10007000F4C10000F2C10000F0C10000EEC10000B8
:100080000C94E50BEAC10000E8C10000E6C10000E5
:10009000E4C10000E2C10000E0C10000DEC10000D8
:1000A000DCC10000DAC100000C94120CD6C10000C3
:1000B000D4C10000D2C10000D0C100000C943F0C9C
:1000C000CCC10000CAC10000C8C10000C6C1000008
:1000D000C4C10000C2C10000C0C10000BEC1000018
:1000E000BCC10000F70EFA0EE90EED0EF30E310F53
:1000F000FE0E020F080F0C0F100F160F1A0F1E0F17
:10010000310F240F280F2C0F0D0A003E00416C6C9C
:1001100020636F6D6D616E6473206D7573742065FF
:100120006E6420776974682061206E65776C696EF3
:10013000652E004D3131343B202D207265706F7279
:100140007420706F736974696F6E20616E642066CD
:1001500065656472617465004D3130303B202D203F
:10016000746869732068656C70206D65737361676E
:1001700065004D31383B202D2064697361626C65E8
:10018000206D6F746F727300473932205B582F599E
:100190002F5A2F452F48287374657073295D3B20B3
:1001A0002D206368616E6765206C6F676963616CA1
:1001B00020706F736974696F6E004739313B202D71
:1001C0002072656C6174697665206D6F64650047A7
:1001D00039303B202D206162736F6C757465206D22
:1001E0006F64650047303420505B7365636F6E64E5
:1001F000735D3B202D2064656C6179004730302FA2
:10020000473031205B582F592F5A2F452F482873DC
:1002100074657073295D205B46286665656472614C
:100220007465295D3B202D206C696E656172206DBF
:100230006F766500436F6D6D616E64733A0047635E
:100240006F6465434E4344656D6F364178697356FC
:1002500032200073746570732F732E007374657091
:10026000732F7320616E64206C65737320746861F2
:100270006E20004E65772066656564726174652046
:100280006D75737420626520677265617465722094
:100290007468616E200000000A0B02090C0D0E0844
:1002A000070304010000000000000000000000003F
:1002B000000000000000000000000000000000003E
:1002C00000001211100000000000000000000000FB
:1002D00000000000000000000000000001021020EB
:1002E000200808102040102040800201020108046C
:1002F0000201010204081020408080402010080400
:100300000201800402018040201008040201080458
:10031000020101020408102040800102040810209C
:1003200040800505050507050808080802020202C5
:100330000A0A080804040404010101010101010181
:100340000303030303030303040707070C0C0C0C4C
:100350000C0C0C0C02020202060606060606060635
:100360000B0B0B0B0B0B0B0B0000200023002600CC
:1003700029002C002F0032000001000003010601BB
:10038000090100002200250028002B002E0031006A
:10039000340002010000050108010B0100002100EA
:1003A000240027002A002D00300033000101000046
:1003B000040107010A014E414E494E495459494E24
:1003C00046CDCCCC3D0AD7233C17B7D13877CC2BC0
:1003D000329595E6241FB14F0A000020410000C865
:1003E0004200401C4620BCBE4CCA1B0E5AAEC59DE6
:1003F0007400B6097711C60911241FBECFEFD1E2F0
:10040000DEBFCDBF00E00CBF12E0A0E0B2E0E6E34B
:10041000F7E300E00BBF02C007900D92A83DB107C3
:10042000D9F724E0A8EDB2E001C01D92AE3FB207BB
:10043000E1F713E0C6EFD3E000E006C02297010920
:10044000FE010BBF0E94BA17C23FD10780E0080728
:10045000A9F70E9425150C948A1BD2CDCF92DF926A
:10046000EF92FF9228EE33E040E050E00E948E17BA
:100470006B017C01CA01B9010E944C0EC601FF90BC
:10048000EF90DF90CF900C94710ECF92DF92EF92AD
:10049000FF926B017C019B01AC016091F0027091B5
:1004A000F1028091F2029091F3020E949715882345
:1004B00009F458C020E836E948E15BE4C701B60119
:1004C0000E94E616181654F027E137EB41ED58E389
:1004D000C701B6010E94971587FF2AC063E772E043
:1004E0008BE594E00E94F81122E030E047E157EB01
:1004F00061ED78E38BE594E00E94E1136CE572E036
:100500008BE594E00E94F8112AE030E040E856E9DB
:1005100068E970E08BE594E00E949D1263E572E06B
:100520008BE594E0FF90EF90DF90CF900C94261233
:10053000A701960160E876E988E19BE40E949B159B
:100540000E9403166093EC027093ED028093EE021A
:100550009093EF02C092F002D092F102E092F20288
:10056000F092F302FF90EF90DF90CF900895CF923A
:10057000DF92EF92FF921F93CF93DF93182F6A01C0
:100580007B01C091F402D091F502CA50DD4F86EF95
:1005900092E00097C9F0FC0120812223A9F08C177A
:1005A0009D0790F421130AC00196DF91CF911F910E
:1005B000FF90EF90DF90CF900C94D81960E270E03C
:1005C0000E94EC190196E5CFC701B601DF91CF91EA
:1005D0001F91FF90EF90DF90CF900895CF92DF9220
:1005E000EF92FF926A017B01BC018BE594E00E94CF
:1005F0001B1222E030E0B701A6018BE594E0FF90EA
:10060000EF90DF90CF900C94E2134091E80250916C
:10061000E9026091EA027091EB0283E192E0DEDF91
:100620004091E4025091E5026091E6027091E70288
:1006300085E192E0D3DF4091E0025091E1026091C8
:10064000E2027091E30287E192E0C8DF4091DC02B0
:100650005091DD026091DE027091DF0289E192E04B
:10066000BDDF4091D8025091D9026091DA027091B9
:10067000DB028BE192E0B2DF4091F0025091F10297
:100680006091F2027091F3028DE192E0A7DF809118
:100690000A02882319F06BE072E002C06FE072E09A
:1006A0008BE594E00C9436124F925F926F927F929A
:1006B000AF92BF92CF92DF92EF92FF920F931F9370
:1006C000CF93DF93CDB7DEB7A0970FB6F894DEBF18
:1006D0000FBECDBF698B7A8B8B8B9C8B2D8B3E8B0A
:1006E0004F8B588FE98EFA8E0B8F1C8F2AA93BA94E
:1006F0004CA95DA92D8F3E8F4F8F58A32091E80202
:100700003091E9024091EA025091EB020E943215C9
:100710002AE130EB4CE153E40E94EA160E940316F2
:1007200060935E0370935F03809360039093610313
:100730002091E4023091E5024091E6025091E702F7
:100740006D897E898F89988D0E9432152AE130EB60
:100750004CE153E40E94EA160E94031660936A0378
:1007600070936B0380936C0390936D032091E00270
:100770003091E1024091E2025091E302C801B701D9
:100780000E9432152AE130EB4CE153E40E94EA1654
:100790000E94031660937603709377038093780327
:1007A000909379032091DC023091DD024091DE02CA
:1007B0005091DF02C601B5010E9432152AE130EBEB
:1007C0004CE153E40E94EA160E94031660938203F0
:1007D0007093830380938403909385032091D802C0
:1007E0003091D9024091DA025091DB026D8D7E8DFD
:1007F0008F8D98A10E9432152AE130EB4CE153E431
:100800000E94EA160E94031660938E0370938F0372
:1008100080939003909391030EE513E038E3E32E69
:1008200033E0F32E412C512C3201F801808191816B
:10083000A281B381AC01BD01B7FF07C0B095A095FF
:10084000909581959F4FAF4FBF4FF801848395835B
:10085000A683B783481659066A067B0614F42C0152
:100860003D0181E014161506160617060CF080E00F
:10087000682FD7018C910E946B0F045F1F4FB8E067
:10088000EB0EF11CE3E00A391E0779F6D301C20131
:10089000B595A79597958795809366039093670381
:1008A000A0936803B09369038093720390937303DA
:1008B000A0937403B093750380937E0390937F039A
:1008C000A0938003B093810380938A0390938B035A
:1008D000A0938C03B0938D0380939603909397031A
:1008E000A0939803B093990300ED17E020E030E067
:1008F0004091EC025091ED026091EE027091EF0296
:10090000041B150B260B370B8D839E83AF83B88793
:10091000081719072A073B0724F40D831E832F832A
:100920003887A30192018D819E81AF81B885281BF4
:10093000390B4A0B5B0B2D873E874F87588B6FE136
:1009400072E08BE594E00E941B122AE030E040ED5B
:1009500057E060E070E08BE594E00E94FA1266E2F6
:1009600072E08BE594E00E941B124091EC025091E2
:10097000ED026091EE027091EF022AE030E08BE52B
:1009800094E00E94FA126BE272E08BE594E00E9420
:100990001B122AE030E04D815E816F8178858BE506
:1009A00094E00E94FA1268E372E08BE594E00E9402
:1009B0001B122AE030E04D855E856F8578898BE5D6
:1009C00094E00E94FA1265E472E08BE594E00E94E4
:1009D0001B122AE030E0B301A2018BE594E00E94F3
:1009E000FA1220ED37E040E050E029873A874B8744
:1009F0005C8719821A821B821C8229813A814B8171
:100A00005C8124153505460557050CF07CC002E6CF
:100A100013E096E3E92E93E0F92EF80184819581A5
:100A2000A681B7814081518162817381840F951FB6
:100A3000A61FB71F84159505A605B7052CF484835A
:100A40009583A683B78313C084199509A609B709AE
:100A5000F80184839583A683B78361E0D7018C91E5
:100A60000E946B0F60E0F70180810E946B0F045FB2
:100A70001F4FF8E0EF0EF11C23E00E39120769F664
:100A800029813A814B815C818D819E81AF81B885BE
:100A9000281739074A075B0764F429853A854B858F
:100AA0005C85215031094109510929873A874B87D3
:100AB0005C8729813A814B815C818D859E85AF85DC
:100AC000B889281739074A075B0764F029853A85F2
:100AD0004B855C852F5F3F4F4F4F5F4F29873A878C
:100AE0004B875C8789859A850E94710E29813A819E
:100AF0004B815C812F5F3F4F4F4F5F4F29833A837C
:100B00004B835C837ACF89899A89AB89BC8980932E
:100B1000E8029093E902A093EA02B093EB022D89D8
:100B20003E894F89588D2093E4023093E50240932B
:100B3000E6025093E702898D9A8DAB8DBC8D809330
:100B4000E0029093E102A093E202B093E302A0924C
:100B5000DC02B092DD02C092DE02D092DF022D8D67
:100B60003E8D4F8D58A12093D8023093D9024093E7
:100B7000DA025093DB02A0960FB6F894DEBF0FBEE8
:100B8000CDBFDF91CF911F910F91FF90EF90DF903C
:100B9000CF90BF90AF907F906F905F904F9035CD8A
:100BA0006EE372E08BE594E00E94F8114AE050E0B9
:100BB00062E070E08BE594E00E94E41264E372E08E
:100BC0008BE594E00E9426126CEF71E08BE594E0D7
:100BD0000E94261264EE71E08BE594E00E942612DA
:100BE0006FEC71E08BE594E00E9426126AEB71E0F5
:100BF0008BE594E00E94261268E871E08BE594E0B2
:100C00000E94261262E771E08BE594E00E942612B2
:100C100068E571E08BE594E00E94261263E371E0E1
:100C20008BE594E00E9426126DE071E08BE594E084
:100C30000C9426121092F5021092F4026BE071E00F
:100C40008BE594E00C94F811CF93DF9386E390E06A
:100C5000909337038093360387E390E090933903B2
:100C60008093380386E290E090933B0380933A03AD
:100C700083E090E090933D0380933C038CE390E00D
:100C800090933F0380933E038DE390E09093410364
:100C90008093400388E390E0909343038093420362
:100CA0008EE090E090934503809344038EE290E0C1
:100CB000909347038093460380E390E09093490329
:100CC000809348038EE390E090934B0380934A0314
:100CD00082E190E090934D0380934C038AE190E091
:100CE00090934F0380934E038CE190E090935103D7
:100CF0008093500388E190E09093530380935203D4
:100D000082E090E0909355038093540384E290E056
:100D1000909357038093560382E290E09093590397
:100D2000809358038EE190E090935B0380935A0385
:100D30008FE090E090935D0380935C03C6E3D3E083
:100D400061E088810E94320F61E08A810E94320F47
:100D500061E08C810E94320F289683E0CE35D8075F
:100D600079F7DF91CF910895CF93DF93CAE3D3E072
:100D700060E088810E946B0F289683E0C236D80716
:100D8000B9F7DF91CF910895CF93DF93CAE3D3E012
:100D900061E088810E946B0F289683E0C236D807F5
:100DA000B9F7DF91CF9108954F925F926F927F9242
:100DB0008F929F92AF92BF92CF92DF92EF92FF926B
:100DC0000F931F93CF93DF9300D01F92CDB7DEB761
:100DD00040E050E060E87FEB87E4C9DB0E94031647
:100DE0006430710509F4EDC054F477FD4BC16230F5
:100DF0007105ACF06230710509F4E3C043C16B3595
:100E0000710509F4EDC06C35710509F4ECC06A3563
:100E1000710509F037C181E080930A0233C1409126
:100E2000F0025091F1026091F2027091F30286E4B7
:100E30009EDB2BDB80910A02882349F04091D80287
:100E40005091D9026091DA027091DB0203C040E058
:100E500050E0BA0188E48BDBF0900A02F11009C07F
:100E60002091D8023091D9024091DA025091DB02F0
:100E700003C020E030E0A9010E9433158B01E82E69
:100E8000992EFF2049F04091DC025091DD026091E3
:100E9000DE027091DF0203C040E050E0BA0185E459
:100EA00066DBF0900A02F11009C02091DC0230915B
:100EB000DD024091DE025091DF0203C020E030E00D
:100EC000A9010E9433155B016C01FF2049F040919C
:100ED000E0025091E1026091E2027091E30203C0EE
:100EE00040E050E0BA018AE542DBF0900A02F110DE
:100EF00009C02091E0023091E1024091E20250915C
:100F0000E30203C020E030E0A9010E9433156983A9
:100F10007A838B839C83FF2049F04091E4025091B7
:100F2000E5026091E6027091E70203C040E050E004
:100F3000BA0189E51CDBF0900A02F11009C020918A
:100F4000E4023091E5024091E6025091E70203C0CD
:100F500020E030E0A9010E9433152B013C01FF2065
:100F600049F04091E8025091E9026091EA027091E3
:100F7000EB0203C040E050E0BA0188E5F8DA2091C6
:100F80000A02211109C02091E8023091E902409142
:100F9000EA025091EB0203C020E030E0A9010E9478
:100FA00033159F92EF921F930F93E980FA800B8184
:100FB0001C81A301920178DB0F900F900F900F908E
:100FC00061C040E050E0BA0180E5D1DA20E030E0D5
:100FD0004AE754E40E94EA160E9403163FDA52C020
:100FE00010920A024FC040E050E0BA0188E4BFDA34
:100FF0002B013C0140E050E0BA0185E4B8DA6B0116
:101000007C0140E050E0BA018AE5B1DA4B015C01B5
:1010100040E050E0BA0189E5AADA69837A838B83DC
:101020009C8340E050E0BA0188E5A1DA6093E802D1
:101030007093E9028093EA029093EB0289819A818E
:10104000AB81BC818093E4029093E502A093E60219
:10105000B093E7028092E0029092E102A092E20255
:10106000B092E302C092DC02D092DD02E092DE0296
:10107000F092DF024092D8025092D9026092DA02D6
:101080007092DB0240E050E060E87FEB8DE46FDAC5
:101090000E94031662317105B1F1CCF46131710522
:1010A00009F05BC00F900F900F900F90DF91CF91E0
:1010B0001F910F91FF90EF90DF90CF90BF90AF9076
:1010C0009F908F907F906F905F904F904DCE643641
:1010D000710571F16237710509F03FC00F900F90F3
:1010E0000F900F90DF91CF911F910F91FF90EF9094
:1010F000DF90CF90BF90AF909F908F907F906F9038
:101100005F904F9082CA0F900F900F900F90DF91D9
:10111000CF911F910F91FF90EF90DF90CF90BF90F4
:10112000AF909F908F907F906F905F904F902CCE5C
:101130000F900F900F900F90DF91CF911F910F9113
:10114000FF90EF90DF90CF90BF90AF909F908F90E7
:101150007F906F905F904F9023CD0F900F900F90E6
:101160000F90DF91CF911F910F91FF90EF90DF9043
:10117000CF90BF90AF909F908F907F906F905F9037
:101180004F90089561E085E06DD661E086E06AD613
:1011900026E040E051EE60E070E08BE594E0DFD7C0
:1011A00053DDE2DD32DAFCDC1092E8021092E90253
:1011B0001092EA021092EB021092E4021092E50201
:1011C0001092E6021092E7021092E0021092E10201
:1011D0001092E2021092E3021092DC021092DD0201
:1011E0001092DE021092DF021092D8021092D90201
:1011F0001092DA021092DB0260E070E08AE794E479
:1012000044D918DD68EC70E08CE993E00C94651427
:101210006BE070E086EA93E029D484EB90E0909351
:10122000A5038093A4036091A4037091A50386EAAB
:1012300093E077FD0CC060D46FE070E080E090E058
:101240002BD58091A4039091A5030197E8CF13C4F7
:101250006BE070E086EA93E009D41092A503109247
:10126000A4036091A4037091A50386EA93E0653B13
:10127000710584F441D46FE070E080E090E00CD51B
:101280008091A4039091A50301969093A503809368
:10129000A403E7CFF0C38091A2039091A3030A9621
:1012A0009093A3038093A20366E070E086EA93E044
:1012B000DDD31092A5031092A4036091A403709152
:1012C000A5038091A2039091A3038617970794F03A
:1012D00086EA93E011D46FE070E080E090E0DCD427
:1012E0008091A4039091A50301969093A503809308
:1012F000A403E3CF86EA93E0BEC366E070E086EA2B
:1013000093E0B4D38091A2039091A3039093A5039B
:101310008093A4036091A4037091A50386EA93E0EF
:101320006A30710564F0E8D36FE070E080E090E02F
:10133000B3D48091A4039091A5030197E7CF9BD3E9
:101340008091A2039091A3030A979093A3038093A3
:10135000A203089561E085E0BEC560E085E0BBC5FD
:1013600061E086E0B8C560E086E0B5C528EC30E015
:1013700042E063E089EA93E0BAD086EA93E0ACD237
:1013800069EC72E08CE993E00C949E148CE993E094
:101390000C943714CF93DF9380919B03882309F437
:1013A00058C06CE472E08CE993E00E940615882333
:1013B00011F02EDF44C06DE572E08CE993E00E94ED
:1013C0000615882311F044DF3AC06FE672E08CE91D
:1013D00093E00E940615882311F05DDF30C06DE7B1
:1013E00072E08CE993E00E940615882311F085DFF6
:1013F00026C06BE872E08CE993E00E940615882312
:1014000011F0A8DF1CC066E972E08CE993E00E944D
:101410000615882311F0A1DF12C062EA72E08CE9A0
:1014200093E00E940615882311F09ADF08C06CEA49
:1014300072E08CE993E00E940615811194DF10920E
:101440009B0369EC72E08CE993E00E94B314109264
:101450009A03D1E08BE594E073D5181619060CF0C9
:1014600043C08BE594E085D5C82F833211F4D09327
:101470009A0380919A03882381F06C2F8CE993E082
:101480000E94F314CA3249F4D0939B03E091F40212
:10149000F091F502EA50FD4F10826C2F8BE594E03D
:1014A000CBD72091F4023091F5022F3331055CF453
:1014B000A9014F5F5F4F5093F5024093F402F90189
:1014C000EA50FD4FC083CA3029F6E091F402F09152
:1014D000F502EA50FD4F108268E071E08BE594E080
:1014E00087D762DCA7DBB6CFDF91CF910895CF938A
:1014F000DF93DC0170E0FB01E452FD4FE4911496B0
:10150000EC931497842F90E0FC01E452FD4FE4919A
:101510001596EC9315976E5D7C4FFB01C491D0E05E
:10152000CC0FDD1FCE57DC4FFE014591549117962D
:101530005C934E931697FC01EE5DFC4F849190E016
:10154000880F991F88599C4FFC0145915491199619
:101550005C934E931897FB016491E62FF0E0EE0F39
:10156000FF1FE456FC4F859194911B969C938E939C
:101570001A972F5F3F4F49E3429FC001439F900D51
:1015800011248E38FFE69F0710F08DE89FE61D9628
:101590009C938E931C97DF91CF9108951F920F9289
:1015A0000FB60F9211240BB60F922F933F934F93C8
:1015B0005F936F937F938F939F93AF93BF93EF93BB
:1015C000FF93E091BB03F091BC031995FF91EF915C
:1015D000BF91AF919F918F917F916F915F914F914B
:1015E0003F912F910F900BBE0F900FBE0F901F9049
:1015F0001895CF92DF92EF92FF920F931F93CF93A4
:10160000DF936C018B017A01EC01C254DC4F8881BD
:1016100087FF04C0FB011182108223C02CE02C9DA7
:10162000C0012D9D900D11242881AC01420F511D48
:1016300027FD5A952091BD0330E0421753078CF4E3
:101640002881AC01420F511D27FD5A959A01FA01DC
:10165000EE0FFF1FE20FF31FEE53FC4F208126FD1C
:1016600019C088818F5F88838CE08C9D90018D9D4F
:10167000300D11248881A901480F511D87FD5A950D
:101680008091BD0390E048175907ACF488818C30F5
:1016900034F111C02881820F911D27FD9A95FC011C
:1016A000EE0FFF1FE80FF91FEE53FC4F808160E043
:1016B0008F7311D4D6CFF801808191810496803444
:1016C0009C4918F480E49CE904C0F8018081918170
:1016D0000496F701918380838FEF888340C0F801DF
:1016E000808191814881B901640F711D47FD7A9510
:1016F000AB01FB01EE0FFF1FE40FF51FEE53FC4F94
:1017000041815281840F951FF701918380838881E5
:10171000A901480F511D87FD5A95FA01EE0FFF1FD1
:10172000E40FF51FEE53FC4F808186FF18C08881BF
:10173000280F311D87FD3A95F901EE0FFF1FE20FCB
:10174000F31FEE53FC4F808161E08F73DF91CF91E7
:101750001F910F91FF90EF90DF90CF90BCC3DF916E
:10176000CF911F910F91FF90EF90DF90CF90089550
:101770001F920F920FB60F9211240BB60F922F9358
:101780003F934F935F936F937F938F939F93AF9309
:10179000BF93EF93FF9348E850E064E870E081E086
:1017A00090E027DFFF91EF91BF91AF919F918F91D3
:1017B0007F916F915F914F913F912F910F900BBE51
:1017C0000F900FBE0F901F9018951F920F920FB69B
:1017D0000F9211240BB60F922F933F934F935F9369
:1017E0006F937F938F939F93AF93BF93EF93FF93E9
:1017F00048E950E064E970E082E090E0FADEFF91B1
:10180000EF91BF91AF919F918F917F916F915F9178
:101810004F913F912F910F900BBE0F900FBE0F90E5
:101820001F9018951F920F920FB60F9211240BB6AE
:101830000F922F933F934F935F936F937F938F9369
:101840009F93AF93BF93EF93FF9348EA50E064EA0E
:1018500070E083E090E0CDDEFF91EF91BF91AF911A
:101860009F918F917F916F915F914F913F912F91B8
:101870000F900BBE0F900FBE0F901F9018951F92E8
:101880000F920FB60F9211240BB60F922F933F9326
:101890004F935F936F937F938F939F93AF93BF9378
:1018A000EF93FF9348E251E064E271E080E090E062
:1018B000A0DEFF91EF91BF91AF919F918F917F91AA
:1018C0006F915F914F913F912F910F900BBE0F90B1
:1018D0000FBE0F901F9018952091BD032033A0F4E8
:1018E00031E0320F3093BD03FC012083822F90E062
:1018F000FC01EE0FFF1FE80FF91FEE53FC4F88EBC2
:101900009BE09283818308952FEFFC01208308954B
:10191000DF92EF92FF920F931F93CF93DF93EC012F
:10192000D62E7A0189018881803308F067C061E092
:101930008D2D98D28881A82FB0E0FD01EE0FFF1FFA
:10194000EA0FFB1FEE53FC4F2D2D2F739081907CDF
:10195000922B908360E272E06E197F0977FF02C0DC
:101960006D5F7F4F7595679575956795698340E6BF
:1019700059E0401B510B57FF02C04D5F5F4F55951B
:101980004795559547954A836CE00E9460179CE007
:10199000899FB001112420E030E0A901460F571FB4
:1019A000FA01EE0FFF1FE40FF51FEE53FC4F90817D
:1019B00096FD18C02F5F3F4F2C30310571F790E036
:1019C0008130910521F51092800082E080938100A2
:1019D0001092850010928400B19A80916F0082600D
:1019E00080936F00888190E0FC01EE0FFF1FE80FED
:1019F000F91FEE53FC4F8081806480838881DF91E2
:101A0000CF911F910F91FF90EF90DF90089582305A
:101A1000910569F41092900082E0809391001092F9
:101A200095001092940088BB80937100DBCF8330C7
:101A3000910569F41092A00082E08093A1001092B9
:101A4000A5001092A40089BB80937200CBCF892B94
:101A500049F61092200182E0809321011092250125
:101A6000109224018ABB80937300BCCF20E639E03A
:101A700040E252E04DCFFC01808190E0FC01EE0F8E
:101A8000FF1FE80FF91FEE53FC4F80818F7B80838F
:101A90000895FC018081803370F5918128E830E061
:101AA000291B310997FD3395220F331F220F331F56
:101AB000621773077CF0928128E532E0291B310917
:101AC00097FD3395220F331F220F331F62177307C1
:101AD0000CF49B0122503109220F331F4FB7F894A9
:101AE00090E0FC01EE0FFF1FE80FF91FEE53FC4FD3
:101AF000328321834FBF08954F925F926F927F92FE
:101B0000AF92BF92CF92DF92EF92FF920F931F930B
:101B1000CF93DF93EC01603282E078070CF03FC096
:101B200077FD06C0653B71052CF064EB70E002C0E8
:101B300060E070E0898128E830E0281B310987FDEA
:101B40003395220F331F220F331F5901CC24B7FCCA
:101B5000C094DC2C882777FD8095982F2A8148E552
:101B600052E0421B510927FD5395440F551F440F66
:101B7000551F2A01662457FC6094762C7F926F9241
:101B80005F924F9214EBE12EF12C00E010E020E088
:101B900030E0A90127D60F900F900F900F90CE0143
:101BA000DF91CF911F910F91FF90EF90DF90CF9039
:101BB000BF90AF907F906F905F904F906ACF1F92D1
:101BC0000F920FB60F9211242F933F938F939F93F1
:101BD000AF93BF938091530490915404A091550406
:101BE000B09156043091520423E0230F2D3720F496
:101BF0000196A11DB11D05C026E8230F0296A11D67
:101C0000B11D209352048093530490935404A093E5
:101C10005504B09356048091570490915804A091B4
:101C20005904B0915A040196A11DB11D8093570427
:101C300090935804A0935904B0935A04BF91AF9164
:101C40009F918F913F912F910F900FBE0F901F90FA
:101C500018953FB7F8948091570490915804A0913B
:101C60005904B0915A0426B5A89B05C02F3F19F01E
:101C70000196A11DB11D3FBF6627782F892F9A2F8E
:101C8000620F711D811D911D42E0660F771F881F35
:101C9000991F4A95D1F70895CF92DF92EF92FF9264
:101CA000CF93DF936B017C01D4DFEB01C114D1042E
:101CB000E104F10479F0D5D6CCDF6C1B7D0B683ED6
:101CC0007340A0F381E0C81AD108E108F108C851B7
:101CD000DC4FECCFDF91CF91FF90EF90DF90CF9072
:101CE00008958230910538F0880F991F880F991F49
:101CF00005970197F1F70895789484B5826084BDC3
:101D000084B5816084BD85B5826085BD85B58160FF
:101D100085BDEEE6F0E0808181608083E1E8F0E05F
:101D20001082808182608083808181608083E0E88E
:101D3000F0E0808181608083E1EBF0E0808184606D
:101D40008083E0EBF0E0808181608083E1E9F0E076
:101D5000808182608083808181608083E0E9F0E01F
:101D6000808181608083E1EAF0E08081826080830D
:101D7000808181608083E0EAF0E0808181608083FF
:101D8000E1E2F1E0808182608083808181608083F4
:101D9000E0E2F1E0808181608083EAE7F0E0808129
:101DA0008460808380818260808380818160808381
:101DB0008081806880831092C100089590E0FC01CA
:101DC0003197E231F10508F04CC0EE58FF4F0C940A
:101DD000AA17809180008F7703C0809180008F7D4B
:101DE00080938000089580918000877FF9CF84B52B
:101DF0008F7702C084B58F7D84BD08958091B00037
:101E00008F7703C08091B0008F7D8093B0000895DC
:101E1000809190008F7707C0809190008F7D03C0E4
:101E200080919000877F8093900008958091A0001A
:101E30008F7707C08091A0008F7D03C08091A000A4
:101E4000877F8093A0000895809120018F7707C03D
:101E5000809120018F7D03C080912001877F809336
:101E600020010895CF93DF9390E0FC01E452FD4FF1
:101E70002491FC01EE5DFC4F8491882349F190E0B0
:101E8000880F991FFC01E456FC4FA591B4918E5721
:101E90009C4FFC01C591D4919FB7611108C0F89483
:101EA0008C91209582238C93888182230AC0623092
:101EB00051F4F8948C91322F309583238C93888140
:101EC000822B888304C0F8948C91822B8C939FBFC3
:101ED000DF91CF9108950F931F93CF93DF931F92BC
:101EE000CDB7DEB7282F30E0F901EA56FD4F8491D7
:101EF000F901E452FD4F1491F901EE5DFC4F04919C
:101F00000023C1F0882319F0698358DF6981E02F2D
:101F1000F0E0EE0FFF1FEE57FC4FA591B4919FB775
:101F2000F8948C91611103C01095812301C0812B1D
:101F30008C939FBF0F90DF91CF911F910F910895C8
:101F4000FC01818D228D90E0805C9F4F821B910966
:101F50008F7399270895FC01918D828D981731F028
:101F6000828DE80FF11D858D90E008958FEF9FEF32
:101F70000895FC01918D828D981761F0828DDF01AB
:101F8000A80FB11D5D968C91928D9F5F9F73928F6C
:101F900090E008958FEF9FEF08958EE691E1892BF1
:101FA00039F080E090E0892B19F098D1811125C09B
:101FB00080E090E0892B41F080E090E0892B21F0D7
:101FC0000E94000081111CC080E090E0892B41F04C
:101FD00080E090E0892B21F00E940000811113C065
:101FE00080E090E0892BA1F080E090E0892B81F0E7
:101FF0000E94000081110AC008950E940000D8CFFD
:102000000E940000E1CF0E940000EACF0C94000083
:102010000895FC01848DDF01A80FB11DA35ABF4FA5
:102020002C91848D90E001968F739927848FA689D7
:10203000B7892C93A089B1898C9180648C93938DFE
:10204000848D981306C00288F389E02D80818F7DEE
:1020500080830895CF93DF93EC01888D8823C1F0AE
:10206000EA89FB89808185FD05C0A889B9898C91A1
:1020700086FD0EC00FB607FCF5CF808185FFF2CF3D
:10208000A889B9898C9185FFEDCFCE01C2DFE8CF59
:10209000DF91CF910895CF92DF92FF920F931F931C
:1020A000CF93DF931F92CDB7DEB76C0181E0D601ED
:1020B00058968C9358975B969C915B975C968C9105
:1020C0005C97981307C05096ED91FC9151978081D1
:1020D00085FD2DC0F601038D10E00F5F1F4F0F73BC
:1020E0001127F02EF601848DF81210C00FB607FCF0
:1020F000F9CFD6015096ED91FC915197808185FFE3
:10210000F1CFC601698385DF6981ECCF838DE80F4C
:10211000F11DE35AFF4F6083D6015B960C935B97EA
:102120005296ED91FC915397808180620CC0D6014C
:102130005696ED91FC91579760835096ED91FC91E6
:10214000519780818064808381E090E00F90DF91DF
:10215000CF911F910F91FF90DF90CF900895BF9284
:10216000CF92DF92EF92FF92CF93DF93EC016A015F
:102170007B01B22EE889F98982E08083411581EEE6
:1021800058076105710599F060E079E08DE390E012
:10219000A7019601A1D6215031094109510956954F
:1021A000479537952795211580E1380790F0E88904
:1021B000F989108260E874E88EE190E0A701960149
:1021C0008BD62150310941095109569547953795CC
:1021D0002795EC85FD853083EE85FF852083188E5D
:1021E000EC89FD89B082EA89FB89808180618083E6
:1021F000EA89FB89808188608083EA89FB89808104
:1022000080688083EA89FB8980818F7D8083DF916C
:10221000CF91FF90EF90DF90CF90BF9008951F92E5
:102220000F920FB60F9211240BB60F922F938F932C
:102230009F93EF93FF93E0916B04F0916C04808186
:10224000E0917104F091720482FD12C0908180913E
:1022500074048F5F8F7320917504821751F0E091A1
:102260007404F0E0E55AFB4F958F8093740401C02D
:102270008081FF91EF919F918F912F910F900BBED5
:102280000F900FBE0F901F9018951F920F920FB6D0
:102290000F9211240BB60F922F933F934F935F939E
:1022A0006F937F938F939F93AF93BF93EF93FF931E
:1022B0008BE594E0AEDEFF91EF91BF91AF919F91DE
:1022C0008F917F916F915F914F913F912F910F90DF
:1022D0000BBE0F900FBE0F901F9018958BE594E0EA
:1022E0002FDE21E0892B09F420E0822F089510923F
:1022F0005E0410925D0488EE93E0A0E0B0E080936D
:102300005F0490936004A0936104B09362048BEB2C
:1023100092E090935C0480935B0485EC90E0909352
:1023200068048093670484EC90E090936A0480933F
:10233000690480EC90E090936C0480936B0481ECD2
:1023400090E090936E0480936D0482EC90E0909303
:10235000700480936F0486EC90E0909372048093F5
:102360007104109274041092750410927604109205
:1023700077040895CF92DF92EF92FF920F931F930D
:10238000CF93DF937C016A01EB0100E010E00C15B4
:102390001D0571F06991D701ED91FC910190F081DB
:1023A000E02DC7011995892B19F00F5F1F4FEFCF53
:1023B000C801DF91CF911F910F91FF90EF90DF90B7
:1023C000CF9008956115710581F0DB010D9000201B
:1023D000E9F7AD0141505109461B570BDC01ED9166
:1023E000FC910280F381E02D199480E090E0089543
:1023F000EF92FF920F931F93CF93DF938C017B019A
:10240000C0E0D0E0F701EC0FFD1F6491662359F0A6
:10241000F801A081B181ED91FC91C8011995892B3A
:1024200011F02196EFCFCE01DF91CF911F910F9147
:10243000FF90EF900895C6CFDC01ED91FC910190E3
:10244000F081E02D199467EC72E0BCCF0F931F93DD
:10245000CF93DF93EC01CCDF8C01CE01F4DF800F52
:10246000911FDF91CF911F910F9108950F931F93AB
:10247000CF93DF93EC01A6DF8C01CE01E4DF800F68
:10248000911FDF91CF911F910F9108958F929F928D
:10249000AF92BF92CF92DF92EF92FF920F931F9372
:1024A000CF93DF93CDB7DEB7A1970FB6F894DEBF19
:1024B0000FBECDBF7C01C42EE52FCB01D22E19A2B9
:1024C00021E02D1510F02AE0D22E8E010F5D1F4F56
:1024D0008D2C912CA12CB12C6C2D7E2FA50194015B
:1024E000FBD48C2DD29E80191124015011098A3001
:1024F00014F4805D01C0895CF801808321153105E9
:102500004105510521F0C22EE32FCA01E5CFB801E4
:10251000C70158DFA1960FB6F894DEBF0FBECDBF3E
:10252000DF91CF911F910F91FF90EF90DF90CF90AF
:10253000BF90AF909F908F900895CF92DF92EF92CF
:10254000FF920F931F93CF93DF93EC016A017B01FE
:102550002115310579F4E881F9810190F081E02DB0
:10256000642FDF91CF911F910F91FF90EF90DF903B
:10257000CF9019942A303105D9F477FF18C06DE255
:102580005BDF8C0144275527BA014C195D096E09A0
:102590007F092AE0CE017ADF800F911FDF91CF9172
:1025A0001F910F91FF90EF90DF90CF9008952AE058
:1025B000B701A601CE01DF91CF911F910F91FF903E
:1025C000EF90DF90CF9062CF0F931F93CF93DF9365
:1025D000EC019A01AB01662757FD6095762FADDFC0
:1025E0008C01CE0130DF800F911FDF91CF911F91C1
:1025F0000F9108950F931F93CF93DF93EC019DDF0D
:102600008C01CE0120DF800F911FDF91CF911F91B0
:102610000F9108954F925F926F927F928F929F9247
:10262000AF92BF92CF92DF92EF92FF920F931F93E0
:10263000CF93DF93EC016A017B01B22E9A01AB01CB
:10264000C701B6012AD4882319F06AEC72E024C0CD
:1026500026013701E89477F82FEF3FEF4FE75FE768
:10266000C301B2011AD481110CC02FEF3FEF4FE725
:102670005FE7C301B2015BD218161CF46EEC72E086
:102680000BC02FEF3FEF4FE75FE4C701B6019ED3CA
:102690001816A4F462ED72E0CE01DF91CF911F9184
:1026A0000F91FF90EF90DF90CF90BF90AF909F90F1
:1026B0008F907F906F905F904F9084CE2FEF3FEF81
:1026C0004FE75FECC701B60132D287FDE3CF20E0D0
:1026D00030E0A901C701B6012AD287FF09C06DE227
:1026E000CE01AADE8C01F7FAF094F7F8F09402C05C
:1026F00000E010E0A12C60E070E080E09FE3AB140C
:1027000039F020E030E040E251E415D2A394F7CF55
:102710009B01AC01C701B601A6D16B017C0178D247
:102720002B013C01A1D29B01AC01C701B6019AD19A
:102730006B017C012AE0B301A201CE01A7DE080FE4
:10274000191FBB2031F066ED72E0CE013BDE080FB1
:10275000191F7B2C772019F120E030E040E251E492
:10276000C701B60137D36B017C014DD24B01AA24BE
:1027700097FCA094BA2C2AE030E0B501A401CE0168
:10278000DCDE080F191FC501B40170D29B01AC013A
:10279000C701B60167D16B017C017A94DBCFC80118
:1027A000DF91CF911F910F91FF90EF90DF90CF902D
:1027B000BF90AF909F908F907F906F905F904F9061
:1027C000089528CF0F931F93CF93DF93EC0122DF5F
:1027D0008C01CE0138DE800F911FDF91CF911F91C8
:1027E0000F9108954F925F926F927F92AF92BF9236
:1027F000CF92DF92EF92FF920F931F93CF93DF93CD
:10280000CDB7DEB729013A01621B730B840B950B20
:102810002A893B894C895D892A193B094C095D0944
:102820002A8B3B8B4C8B5D8B9B01AC016A897B892E
:102830008C899D8936D3E418F50806091709A80183
:1028400097016CD32A0D3B1D4C1D5D1DCA01B901BA
:10285000DF91CF911F910F91FF90EF90DF90CF907C
:10286000BF90AF907F906F905F904F900895FC0164
:10287000808191812AC4CF93DF93EC018881998173
:10288000009709F022D4198218821D821C821B82B3
:102890001A82DF91CF9108950F931F93CF93DF9307
:1028A000EC018B016F5F7F4F888199819DD40097E8
:1028B00031F0998388831B830A8381E001C080E023
:1028C000DF91CF911F910F910895CF93DF93EC018A
:1028D00088819981892B29F08A819B8186179707A6
:1028E00058F4CE01D9DF882341F08C819D81892B5A
:1028F00019F4E881F981108281E0DF91CF91089588
:10290000EF92FF920F931F93CF93DF93EC017B0124
:102910008A01BA01DADF811103C0CE01ACDF06C043
:102920001D830C83B701888199816AD5CE01DF911F
:10293000CF911F910F91FF90EF900895FC011182AC
:10294000108213821282158214826115710551F072
:10295000FB0101900020E9F7AF0141505109461BEE
:10296000570BCECF0895CF93DF93EC01611571051E
:1029700059F0FB0101900020E9F7AF0141505109E6
:10298000461B570BBDDF01C076DFCE01DF91CF9133
:102990000895EF92FF920F931F93CF93DF93EC0173
:1029A0007B010C811D816115710511F480E014C05B
:1029B0004115510581F0040F151FB80186DF8823EA
:1029C000A9F3288139818C819D81B701820F931FE2
:1029D00017D51D830C8381E0DF91CF911F910F915B
:1029E000FF90EF900895CF93DF931F921F92CDB782
:1029F000DEB769831A8241E050E0BE016F5F7F4F0E
:102A0000C8DF0F900F90DF91CF910895FC012481D2
:102A10003581232B31F421E06115710599F0FB011B
:102A200008C0FC01808191816115710531F421E0BC
:102A3000FC018081882331F004C0D9D421E0892BA6
:102A400009F020E0822F0895089556D9FDDF0E94F5
:102A5000C208CDECDFE00E94CA092097E1F39DDABD
:102A6000FACF08955058BB27AA270ED075C166D15A
:102A700030F06BD120F031F49F3F11F41EF45BC1B4
:102A80000EF4E095E7FB51C1E92F77D180F3BA1737
:102A9000620773078407950718F071F49EF58FC1DC
:102AA0000EF4E0950B2EBA2FA02D0B01B901900169
:102AB0000C01CA01A0011124FF27591B99F0593FAD
:102AC00050F4503E68F11A16F040A22F232F342FF5
:102AD0004427585FF3CF469537952795A795F04043
:102AE0005395C9F77EF41F16BA0B620B730B840B58
:102AF000BAF09150A1F0FF0FBB1F661F771F881F10
:102B0000C2F70EC0BA0F621F731F841F48F4879567
:102B100077956795B795F7959E3F08F0B3CF939556
:102B2000880F08F09927EE0F979587950895D9D0CB
:102B300008F481E008950CD00FC107D140F0FED019
:102B400030F021F45F3F19F0F0C0511139C1F3C0EA
:102B500014D198F39923C9F35523B1F3951B550B61
:102B6000BB27AA2762177307840738F09F5F5F4F60
:102B7000220F331F441FAA1FA9F333D00E2E3AF0A1
:102B8000E0E830D091505040E695001CCAF729D0BB
:102B9000FE2F27D0660F771F881FBB1F261737070A
:102BA0004807AB07B0E809F0BB0B802DBF01FF273A
:102BB00093585F4F2AF09E3F510568F0B6C000C1A0
:102BC0005F3FECF3983EDCF3869577956795B79574
:102BD000F7959F5FC9F7880F911D9695879597F98F
:102BE0000895E1E0660F771F881FBB1F6217730708
:102BF0008407BA0720F0621B730B840BBA0BEE1F1D
:102C000088F7E095089504D06894B111D9C008956B
:102C1000BCD088F09F5790F0B92F9927B751A0F0FA
:102C2000D1F0660F771F881F991F1AF0BA95C9F760
:102C300012C0B13081F0C3D0B1E00895C0C0672F99
:102C4000782F8827B85F39F0B93FCCF38695779510
:102C50006795B395D9F73EF49095809570956195F9
:102C60007F4F8F4F9F4F0895E89409C097FB3EF424
:102C700090958095709561957F4F8F4F9F4F9923C9
:102C8000A9F0F92F96E9BB279395F6958795779547
:102C90006795B795F111F8CFFAF4BB0F11F460FF07
:102CA0001BC06F5F7F4F8F4F9F4F16C0882311F05F
:102CB00096E911C0772321F09EE8872F762F05C073
:102CC000662371F096E8862F70E060E02AF09A950E
:102CD000660F771F881FDAF7880F9695879597F903
:102CE0000895990F0008550FAA0BE0E8FEEF16169D
:102CF0001706E807F907C0F012161306E407F507F0
:102D000098F0621B730B840B950B39F40A2661F063
:102D1000232B242B252B21F408950A2609F4A14006
:102D2000A6958FEF811D811D089597F99F6780E813
:102D300070E060E008959FEF80EC089500240A940D
:102D40001616170618060906089500240A94121686
:102D50001306140605060895092E0394000C11F4B9
:102D6000882352F0BB0F40F4BF2B11F460FF04C066
:102D70006F5F7F4F8F4F9F4F089557FD9058440FBF
:102D8000551F59F05F3F71F04795880F97FB991FCA
:102D900061F09F3F79F08795089512161306140687
:102DA000551FF2CF4695F1DF08C016161706180614
:102DB000991FF1CF86957105610508940895E894EF
:102DC000BB2766277727CB0197F908958ADF08F498
:102DD0008FEF08950BD0C0CFB1DF28F0B6DF18F029
:102DE000952309F0A2CFA7CF1124EACFC6DFA0F325
:102DF000959FD1F3950F50E0551F629FF001729F90
:102E0000BB27F00DB11D639FAA27F00DB11DAA1FAE
:102E1000649F6627B00DA11D661F829F2227B00DFB
:102E2000A11D621F739FB00DA11D621F839FA00D86
:102E3000611D221F749F3327A00D611D231F849FD6
:102E4000600D211D822F762F6A2F11249F5750402D
:102E50008AF0E1F088234AF0EE0FFF1FBB1F661FC8
:102E6000771F881F91505040A9F79E3F510570F081
:102E70005CCFA6CF5F3FECF3983EDCF38695779569
:102E80006795B795F795E7959F5FC1F7FE2B880F7C
:102E9000911D9695879597F9089523DF880B990BD7
:102EA0000895DB018F939F935BD0BF91AF91A29F59
:102EB000800D911DA39F900DB29F900D1124089538
:102EC000991B79E004C0991F961708F0961B881F7C
:102ED0007A95C9F780950895A1E21A2EAA1BBB1B0B
:102EE000FD010DC0AA1FBB1FEE1FFF1FA217B307D6
:102EF000E407F50720F0A21BB30BE40BF50B661FEC
:102F0000771F881F991F1A9469F7609570958095AF
:102F100090959B01AC01BD01CF010895052E97FB53
:102F200016F400940FD057FD05D0D6DF07FC02D071
:102F300046F408C050954095309521953F4F4F4F2E
:102F40005F4F089590958095709561957F4F8F4F55
:102F50009F4F0895EE0FFF1F0590F491E02D1994F7
:102F60000DD0A59F900DB49F900DA49F800D911D35
:102F7000112408950790F691E02D1994A29FB001B5
:102F8000B39FC001A39F700D811D1124911DB29F9D
:102F9000700D811D1124911D0895CF93DF93823010
:102FA000910510F482E090E0E091FA04F091FB04C6
:102FB00020E030E0A0E0B0E0309739F1408151816D
:102FC00048175907B8F04817590771F4828193815F
:102FD000109729F013969C938E9312972CC0909380
:102FE000FB048093FA0427C02115310531F0421704
:102FF000530718F0A901DB0101C0EF019A01BD01DF
:10300000DF010280F381E02DD7CF21153105F9F0E2
:10301000281B390B2430310580F48A819B8161158E
:10302000710521F0FB019383828304C09093FB041C
:103030008093FA04FE01329644C0FE01E20FF31FB2
:103040008193919322503109398328833AC020918A
:10305000F8043091F904232B41F4209102023091BD
:1030600003023093F9042093F80420910002309178
:1030700001022115310541F42DB73EB740910402FC
:1030800050910502241B350BE091F804F091F904EE
:10309000E217F307A0F42E1B3F0B2817390778F02F
:1030A000AC014E5F5F4F2417350748F04E0F5F1F8E
:1030B0005093F9044093F8048193919302C0E0E0A7
:1030C000F0E0CF01DF91CF910895CF93DF93009788
:1030D00009F487C0FC01329713821282C091FA046E
:1030E000D091FB04209781F420813181280F391F72
:1030F0008091F8049091F9048217930779F5F09381
:10310000F904E093F8046DC0DE0120E030E0AE1772
:10311000BF0750F412964D915C9113979D01411594
:10312000510509F1DA01F3CFB383A28340815181C4
:10313000840F951F8A179B0771F48D919C911197AD
:10314000840F951F02969183808312968D919C9196
:103150001397938382832115310529F4F093FB049F
:10316000E093FA043EC0D9011396FC93EE931297B4
:103170004D915D91A40FB51FEA17FB0779F480818B
:103180009181840F951F0296D90111969C938E937D
:103190008281938113969C938E931297E0E0F0E0E6
:1031A0008A819B81009719F0FE01EC01F9CFCE01D5
:1031B000029628813981820F931F2091F804309163
:1031C000F9042817390769F4309729F41092FB04A1
:1031D0001092FA0402C013821282D093F904C093B1
:1031E000F804DF91CF9108956F927F928F929F9212
:1031F000AF92BF92CF92DF92EF92FF920F931F9305
:10320000CF93DF93EC01CB01209779F4DF91CF913D
:103210001F910F91FF90EF90DF90CF90BF90AF90F4
:103220009F908F907F906F90B8CEFE01E60FF71FB2
:103230009E0122503109E217F30708F4A8C0D90112
:103240000D911C91119706171707B0F00530110565
:1032500008F49BC0A801445051094617570708F4C9
:1032600094C002501109061B170B019311936D9323
:103270007C93CF012ADF89C05B01A01AB10A4E01FD
:10328000800E911EA091FA04B091FB04612C712C68
:1032900060E070E0109709F449C0A815B905C9F5B8
:1032A000ED90FC901197670142E0C40ED11CCA1446
:1032B000DB0478F147018A189B08640142E0C40EE0
:1032C000D11C1296BC9012971396AC91B5E0CB1618
:1032D000D10440F0B282A38391828082D9018D9380
:1032E0009C9309C00E5F1F4F0E0D1F1DF901118326
:1032F0000083EB2DFA2F6115710531F0DB01139678
:10330000FC93EE93129741C0F093FB04E093FA0410
:103310003CC06D917C9111976616770608F43B01CD
:10332000BD0112960D90BC91A02DB4CF6091F80410
:103330007091F90468157905E9F468167906D0F4F6
:1033400040910002509101024115510541F44DB7E1
:103350005EB76091040270910502461B570BE4179B
:10336000F507A8F4F093F904E093F804F9019183C8
:1033700080830BC012DE7C01009749F0A801BE01DA
:1033800022D0CE01A2DEC70104C0CE0102C080E07F
:1033900090E0DF91CF911F910F91FF90EF90DF9020
:1033A000CF90BF90AF909F908F907F906F90089537
:1033B000662777272CC0911192C1803219F089506D
:1033C0008550D0F70895FB01DC0102C001900D92F9
:1033D00041505040D8F70895FC018191861721F0A3
:1033E0008823D9F7992708953197CF010895FB01D4
:1033F000DC018D91019080190110D9F3990B08958A
:10340000FB01DC0101900D920020E1F708958F92FD
:103410009F92AF92BF92CF92DF92EF92FF920F9363
:103420001F93CF93DF938B016115710521F0DB01B1
:103430008C9311969C93EC015E01BFEFAB1ABB0A13
:103440007501C8808C2D90E0B6DF892B11F0E50165
:10345000F3CFEDE2CE1208C07E01F2E0EF0EF11CD8
:10346000C980DD24D39409C02BE2C21205C07E01BD
:1034700042E0E40EF11CC980D12CE701219743E022
:1034800050E06EEB73E0CE012DD1892BB9F4239679
:1034900045E050E069EB73E0CE0124D1892B09F4BB
:1034A00025960115110519F0D801CD93DC93D110A3
:1034B00000C160E070E080E89FE704C143E050E0B5
:1034C00066EB73E0CE010ED1892B59F4011511057D
:1034D00009F4F4C0B2E0EB0EF11CF801F182E082D5
:1034E000EDC0F70160E070E0CB01C0E0D0E07F010B
:1034F000A0EDAA2EAC0C29E02A1528F14D2D426032
:10350000B42E2D2D2870D2FE04C0211124C0219686
:1035100022C021112197A5E0B0E09B01AC0120DD84
:10352000660F771F881F991F6A0D711D811D911DE0
:103530006839A9E97A078A07A9E19A0760F0BD2DE1
:10354000B660BB2E08C02EEFA2120AC0D3FC50C03A
:103550004D2D4860B42E3196D701CC90DB2CC7CFCF
:103560002C2D2F7D253409F043C0A081AD3241F4CC
:10357000BD2DB061DB2E7F0122E0E20EF11C0CC0FC
:103580007F01AB3231F04FEFE41AF40A21E030E072
:1035900006C0A2E0EA0EF11CA18122E030E0A053B7
:1035A000AA3018F0E21AF30A23C0F70120E030E055
:1035B0002038BCE03B075CF4A901440F551F440FC1
:1035C000551F240F351F220F331F2A0F311DAF0146
:1035D0004F5F5F4F7A01A081A053AA3010F4FA0127
:1035E000E7CFD4FE03C0319521953109C20FD31F17
:1035F000D1FE09C00115110531F0E1E0EE1AF10824
:10360000D801ED92FC9230DB2D2D2370233019F080
:103610004B015C0106C04B015C01B7FAB094B7F8EE
:10362000B09420E030E0A901C501B40180DA88231C
:1036300009F43CC0D7FF06C0D195C195D10905ED6D
:1036400013E002C00DEE13E06801B8E1CB1AD10817
:1036500090E2E92EF12CCE15DF056CF0F8012591F2
:10366000359145915491C501B401B4DB4B015C0126
:10367000CE19DF09F0CF04501109F594E7940C1529
:103680001D0549F78A2D880F8B2D881F8F3F41F02C
:1036900020E030E0A901C501B40149DA811106C07A
:1036A00082E290E09093FD048093FC04C501B40194
:1036B00009C060E070E080E89FEF04C060E070E067
:1036C00080EC9FE7DF91CF911F910F91FF90EF90DA
:1036D000DF90CF90BF90AF909F908F9008959927E3
:1036E00088270895FB01DC014150504088F08D91FE
:1036F00081341CF08B350CF4805E659161341CF0D4
:103700006B350CF4605E861B611171F3990B0895A3
:10371000881BFCCF13E0C6EFD3E000E005C0229782
:103720000109FE010BBF26DCC83FD10780E0080776
:06373000B1F7F894FFCF91
:103736000000FE04800001000000014142530052D7
:10374600454C00580059005A0045004800460053B1
:10375600544152542000544F502000616363656CFD
:1037660020756E74696C2000646563656C20616603
:103776007465722000746F74616C20002374757216
:103786006E736572766F316F70656E2A002374757D
:10379600726E736572766F31636C6F73652A002380
:1037A6007475726E736572766F62612A0023747522
:1037B600726E736572766F62622A00236D61676E40
:1037C60065746F6E2A00236D61676E65746F666639
:1037D6002A00236D6F746F726F6E2A00236D6F74EB
:1037E6006F726F66662A00000000004B10BA11A0C7
:1037F6000FB90FAB0F2A100D0A006E616E00696ECD
:0838060066006F7666002E00DB
:00000001FF
